{
  "contractName": "FunctionCaller",
  "abi": [
    {
      "inputs": [
        {
          "internalType": "address",
          "name": "a",
          "type": "address"
        }
      ],
      "name": "callName",
      "outputs": [
        {
          "internalType": "string",
          "name": "",
          "type": "string"
        }
      ],
      "stateMutability": "view",
      "type": "function",
      "constant": true
    }
  ],
  "bytecode": "0x608060405234801561001057600080fd5b506104b5806100206000396000f3fe608060405234801561001057600080fd5b506004361061002b5760003560e01c8063c619ff1814610030575b600080fd5b61004a600480360381019061004591906101c5565b610060565b604051610057919061028b565b60405180910390f35b606060008290508073ffffffffffffffffffffffffffffffffffffffff1663f5461d416040518163ffffffff1660e01b8152600401602060405180830381865afa1580156100b2573d6000803e3d6000fd5b505050506040513d601f19601f820116820180604052508101906100d691906102e3565b508073ffffffffffffffffffffffffffffffffffffffff166306fdde036040518163ffffffff1660e01b8152600401600060405180830381865afa158015610122573d6000803e3d6000fd5b505050506040513d6000823e3d601f19601f8201168201806040525081019061014b9190610436565b915050919050565b6000604051905090565b600080fd5b600080fd5b600073ffffffffffffffffffffffffffffffffffffffff82169050919050565b600061019282610167565b9050919050565b6101a281610187565b81146101ad57600080fd5b50565b6000813590506101bf81610199565b92915050565b6000602082840312156101db576101da61015d565b5b60006101e9848285016101b0565b91505092915050565b600081519050919050565b600082825260208201905092915050565b60005b8381101561022c578082015181840152602081019050610211565b8381111561023b576000848401525b50505050565b6000601f19601f8301169050919050565b600061025d826101f2565b61026781856101fd565b935061027781856020860161020e565b61028081610241565b840191505092915050565b600060208201905081810360008301526102a58184610252565b905092915050565b6000819050919050565b6102c0816102ad565b81146102cb57600080fd5b50565b6000815190506102dd816102b7565b92915050565b6000602082840312156102f9576102f861015d565b5b6000610307848285016102ce565b91505092915050565b600080fd5b600080fd5b7f4e487b7100000000000000000000000000000000000000000000000000000000600052604160045260246000fd5b61035282610241565b810181811067ffffffffffffffff821117156103715761037061031a565b5b80604052505050565b6000610384610153565b90506103908282610349565b919050565b600067ffffffffffffffff8211156103b0576103af61031a565b5b6103b982610241565b9050602081019050919050565b60006103d96103d484610395565b61037a565b9050828152602081018484840111156103f5576103f4610315565b5b61040084828561020e565b509392505050565b600082601f83011261041d5761041c610310565b5b815161042d8482602086016103c6565b91505092915050565b60006020828403121561044c5761044b61015d565b5b600082015167ffffffffffffffff81111561046a57610469610162565b5b61047684828501610408565b9150509291505056fea264697066735822122053913fd5b27c303b5ed57db6b3bb196f6fe8edef55f43f5336d187e281c2de1764736f6c634300080b0033",
  "immutableReferences": {},
  "source": "// SPDX-License-Identifier: MIT\r\n// compiler version must be greater than or equal to 0.8.10 and less than 0.9.0\r\npragma solidity ^0.8.7;\r\n\r\nimport './ItemStorage.sol';\r\n\r\ncontract FunctionCaller {\r\n\r\n    function  callName(address a) public view returns (string memory) {\r\n        ItemStorage item = ItemStorage(a);\r\n\r\n        item.getDmg();\r\n        return item.name();\r\n    }\r\n}\r\n\r\n",
  "sourcePath": "C:\\TruffleWorkSpace\\helloWorld\\contracts\\FunctionCaller.sol",
  "compiler": {
    "name": "solc",
    "version": "0.8.11+commit.d7f03943.Emscripten.clang"
  },
  "schemaVersion": "3.4.5",
  "updatedAt": "2022-05-17T17:30:22.973Z",
  "networkType": "ethereum",
  "devdoc": {
    "kind": "dev",
    "methods": {},
    "version": 1
  },
  "userdoc": {
    "kind": "user",
    "methods": {},
    "version": 1
  }
}