{
  "contractName": "ItemStorage",
  "abi": [
    {
      "inputs": [
        {
          "internalType": "uint256",
          "name": "_idType",
          "type": "uint256"
        },
        {
          "internalType": "string",
          "name": "_name",
          "type": "string"
        },
        {
          "internalType": "string",
          "name": "_description",
          "type": "string"
        },
        {
          "internalType": "uint256",
          "name": "damage",
          "type": "uint256"
        },
        {
          "internalType": "address",
          "name": "_owner",
          "type": "address"
        }
      ],
      "name": "createItem",
      "outputs": [
        {
          "components": [
            {
              "internalType": "uint256",
              "name": "idType",
              "type": "uint256"
            },
            {
              "internalType": "string",
              "name": "name",
              "type": "string"
            },
            {
              "internalType": "string",
              "name": "description",
              "type": "string"
            },
            {
              "internalType": "uint256",
              "name": "damage",
              "type": "uint256"
            }
          ],
          "internalType": "struct ItemStorage.Item",
          "name": "",
          "type": "tuple"
        }
      ],
      "stateMutability": "nonpayable",
      "type": "function"
    },
    {
      "inputs": [],
      "name": "getBalances",
      "outputs": [
        {
          "internalType": "uint256[]",
          "name": "",
          "type": "uint256[]"
        }
      ],
      "stateMutability": "nonpayable",
      "type": "function"
    }
  ],
  "bytecode": "0x608060405234801561001057600080fd5b50610980806100206000396000f3fe608060405234801561001057600080fd5b50600436106100355760003560e01c8062113e081461003a578063612c1eec14610058575b600080fd5b610042610088565b60405161004f919061041f565b60405180910390f35b610072600480360381019061006d9190610625565b610128565b60405161007f91906107ca565b60405180910390f35b6060806000600160003373ffffffffffffffffffffffffffffffffffffffff1673ffffffffffffffffffffffffffffffffffffffff168152602001908152602001600020905060005b600281101561011f5781600082815260200190815260200160002054838281518110610100576100ff6107ec565b5b60200260200101818152505080806101179061084a565b9150506100d1565b50819250505090565b61013061028c565b60006040518060800160405280888152602001878152602001868152602001858152509050806002600089815260200190815260200160002060008201518160000155602082015181600101908051906020019061018f9291906102b4565b5060408201518160020190805190602001906101ac9291906102b4565b506060820151816003015590505060018060008573ffffffffffffffffffffffffffffffffffffffff1673ffffffffffffffffffffffffffffffffffffffff1681526020019081526020016000206000898152602001908152602001600020546102169190610893565b600160008573ffffffffffffffffffffffffffffffffffffffff1673ffffffffffffffffffffffffffffffffffffffff16815260200190815260200160002060008981526020019081526020016000208190555060016003546102799190610893565b6003819055508091505095945050505050565b6040518060800160405280600081526020016060815260200160608152602001600081525090565b8280546102c090610918565b90600052602060002090601f0160209004810192826102e25760008555610329565b82601f106102fb57805160ff1916838001178555610329565b82800160010185558215610329579182015b8281111561032857825182559160200191906001019061030d565b5b509050610336919061033a565b5090565b5b8082111561035357600081600090555060010161033b565b5090565b600081519050919050565b600082825260208201905092915050565b6000819050602082019050919050565b6000819050919050565b61039681610383565b82525050565b60006103a8838361038d565b60208301905092915050565b6000602082019050919050565b60006103cc82610357565b6103d68185610362565b93506103e183610373565b8060005b838110156104125781516103f9888261039c565b9750610404836103b4565b9250506001810190506103e5565b5085935050505092915050565b6000602082019050818103600083015261043981846103c1565b905092915050565b6000604051905090565b600080fd5b600080fd5b61045e81610383565b811461046957600080fd5b50565b60008135905061047b81610455565b92915050565b600080fd5b600080fd5b6000601f19601f8301169050919050565b7f4e487b7100000000000000000000000000000000000000000000000000000000600052604160045260246000fd5b6104d48261048b565b810181811067ffffffffffffffff821117156104f3576104f261049c565b5b80604052505050565b6000610506610441565b905061051282826104cb565b919050565b600067ffffffffffffffff8211156105325761053161049c565b5b61053b8261048b565b9050602081019050919050565b82818337600083830152505050565b600061056a61056584610517565b6104fc565b90508281526020810184848401111561058657610585610486565b5b610591848285610548565b509392505050565b600082601f8301126105ae576105ad610481565b5b81356105be848260208601610557565b91505092915050565b600073ffffffffffffffffffffffffffffffffffffffff82169050919050565b60006105f2826105c7565b9050919050565b610602816105e7565b811461060d57600080fd5b50565b60008135905061061f816105f9565b92915050565b600080600080600060a086880312156106415761064061044b565b5b600061064f8882890161046c565b955050602086013567ffffffffffffffff8111156106705761066f610450565b5b61067c88828901610599565b945050604086013567ffffffffffffffff81111561069d5761069c610450565b5b6106a988828901610599565b93505060606106ba8882890161046c565b92505060806106cb88828901610610565b9150509295509295909350565b600081519050919050565b600082825260208201905092915050565b60005b838110156107125780820151818401526020810190506106f7565b83811115610721576000848401525b50505050565b6000610732826106d8565b61073c81856106e3565b935061074c8185602086016106f4565b6107558161048b565b840191505092915050565b6000608083016000830151610778600086018261038d565b50602083015184820360208601526107908282610727565b915050604083015184820360408601526107aa8282610727565b91505060608301516107bf606086018261038d565b508091505092915050565b600060208201905081810360008301526107e48184610760565b905092915050565b7f4e487b7100000000000000000000000000000000000000000000000000000000600052603260045260246000fd5b7f4e487b7100000000000000000000000000000000000000000000000000000000600052601160045260246000fd5b600061085582610383565b91507fffffffffffffffffffffffffffffffffffffffffffffffffffffffffffffffff8214156108885761088761081b565b5b600182019050919050565b600061089e82610383565b91506108a983610383565b9250827fffffffffffffffffffffffffffffffffffffffffffffffffffffffffffffffff038211156108de576108dd61081b565b5b828201905092915050565b7f4e487b7100000000000000000000000000000000000000000000000000000000600052602260045260246000fd5b6000600282049050600182168061093057607f821691505b60208210811415610944576109436108e9565b5b5091905056fea26469706673582212208aca60a68acdacc35db7f5df6d49d46d835880bef36c549986dab1208da2c3bc64736f6c634300080b0033",
  "immutableReferences": {},
  "source": "// SPDX-License-Identifier: MIT\r\npragma solidity 0.8.11;\r\n\r\ncontract ItemStorage {\r\n\r\n\r\n   mapping (uint => uint) id2Balance;\r\n   mapping (address =>  mapping (uint => uint)) address2Balances;\r\n\r\n   mapping(uint => Item) itemStats;\r\n   uint itemTypes;\r\n\r\n   struct Item {\r\n      uint idType;\r\n      string name;\r\n      string description;\r\n      uint damage;\r\n   }\r\n\r\n   function createItem(uint _idType, string memory _name , string memory _description , uint damage, address _owner) public returns (Item memory) {\r\n      Item memory newItem = Item(_idType, _name, _description, damage);\r\n      itemStats[_idType] = newItem;\r\n      address2Balances[_owner][_idType] = address2Balances[_owner][_idType] + 1;\r\n\r\n      itemTypes = itemTypes + 1;\r\n\r\n      return newItem;\r\n\r\n   }\r\n\r\n   function getBalances() public returns ( uint[] memory){\r\n\r\n      uint[] memory balances;\r\n      mapping(uint => uint) storage auxMap = address2Balances[msg.sender];\r\n\r\n      for(uint i = 0; i < 2; i++) {\r\n            balances[i] = auxMap[i];\r\n      }\r\n\r\n\r\n      return balances;\r\n   }\r\n\r\n }  ",
  "sourcePath": "C:\\TruffleWorkSpace\\helloWorld\\contracts\\ItemStorage.sol",
  "compiler": {
    "name": "solc",
    "version": "0.8.11+commit.d7f03943.Emscripten.clang"
  },
  "schemaVersion": "3.4.5",
  "updatedAt": "2022-05-22T00:43:48.693Z",
  "networkType": "ethereum",
  "devdoc": {
    "kind": "dev",
    "methods": {},
    "version": 1
  },
  "userdoc": {
    "kind": "user",
    "methods": {},
    "version": 1
  }
}