{
  "contractName": "ItemStorage",
  "abi": [
    {
      "inputs": [
        {
          "internalType": "uint256",
          "name": "_id",
          "type": "uint256"
        },
        {
          "internalType": "string",
          "name": "_name",
          "type": "string"
        },
        {
          "internalType": "uint256",
          "name": "_dmg",
          "type": "uint256"
        }
      ],
      "stateMutability": "nonpayable",
      "type": "constructor"
    },
    {
      "inputs": [],
      "name": "name",
      "outputs": [
        {
          "internalType": "string",
          "name": "",
          "type": "string"
        }
      ],
      "stateMutability": "view",
      "type": "function",
      "constant": true
    },
    {
      "inputs": [],
      "name": "getId",
      "outputs": [
        {
          "internalType": "uint256",
          "name": "",
          "type": "uint256"
        }
      ],
      "stateMutability": "view",
      "type": "function",
      "constant": true
    },
    {
      "inputs": [],
      "name": "getDmg",
      "outputs": [
        {
          "internalType": "uint256",
          "name": "",
          "type": "uint256"
        }
      ],
      "stateMutability": "view",
      "type": "function",
      "constant": true
    }
  ],
  "bytecode": "0x608060405234801561001057600080fd5b5060405161065d38038061065d833981810160405281019061003291906102b6565b82600181905550816000908051906020019061004f92919061005f565b5080600281905550505050610386565b82805461006b90610354565b90600052602060002090601f01602090048101928261008d57600085556100d4565b82601f106100a657805160ff19168380011785556100d4565b828001600101855582156100d4579182015b828111156100d35782518255916020019190600101906100b8565b5b5090506100e191906100e5565b5090565b5b808211156100fe5760008160009055506001016100e6565b5090565b6000604051905090565b600080fd5b600080fd5b6000819050919050565b61012981610116565b811461013457600080fd5b50565b60008151905061014681610120565b92915050565b600080fd5b600080fd5b6000601f19601f8301169050919050565b7f4e487b7100000000000000000000000000000000000000000000000000000000600052604160045260246000fd5b61019f82610156565b810181811067ffffffffffffffff821117156101be576101bd610167565b5b80604052505050565b60006101d1610102565b90506101dd8282610196565b919050565b600067ffffffffffffffff8211156101fd576101fc610167565b5b61020682610156565b9050602081019050919050565b60005b83811015610231578082015181840152602081019050610216565b83811115610240576000848401525b50505050565b6000610259610254846101e2565b6101c7565b90508281526020810184848401111561027557610274610151565b5b610280848285610213565b509392505050565b600082601f83011261029d5761029c61014c565b5b81516102ad848260208601610246565b91505092915050565b6000806000606084860312156102cf576102ce61010c565b5b60006102dd86828701610137565b935050602084015167ffffffffffffffff8111156102fe576102fd610111565b5b61030a86828701610288565b925050604061031b86828701610137565b9150509250925092565b7f4e487b7100000000000000000000000000000000000000000000000000000000600052602260045260246000fd5b6000600282049050600182168061036c57607f821691505b602082108114156103805761037f610325565b5b50919050565b6102c8806103956000396000f3fe608060405234801561001057600080fd5b50600436106100415760003560e01c806306fdde03146100465780635d1ca63114610064578063f5461d4114610082575b600080fd5b61004e6100a0565b60405161005b91906101db565b60405180910390f35b61006c61012e565b6040516100799190610216565b60405180910390f35b61008a610138565b6040516100979190610216565b60405180910390f35b600080546100ad90610260565b80601f01602080910402602001604051908101604052809291908181526020018280546100d990610260565b80156101265780601f106100fb57610100808354040283529160200191610126565b820191906000526020600020905b81548152906001019060200180831161010957829003601f168201915b505050505081565b6000600154905090565b6000600254905090565b600081519050919050565b600082825260208201905092915050565b60005b8381101561017c578082015181840152602081019050610161565b8381111561018b576000848401525b50505050565b6000601f19601f8301169050919050565b60006101ad82610142565b6101b7818561014d565b93506101c781856020860161015e565b6101d081610191565b840191505092915050565b600060208201905081810360008301526101f581846101a2565b905092915050565b6000819050919050565b610210816101fd565b82525050565b600060208201905061022b6000830184610207565b92915050565b7f4e487b7100000000000000000000000000000000000000000000000000000000600052602260045260246000fd5b6000600282049050600182168061027857607f821691505b6020821081141561028c5761028b610231565b5b5091905056fea26469706673582212206a96f6fcbfe4e5c6557a22b0c2a505f0d7c3d855ea069c2e8e8307d4049c911064736f6c634300080b0033",
  "immutableReferences": {},
  "source": "// SPDX-License-Identifier: MIT\r\npragma solidity 0.8.11;\r\n\r\ncontract ItemStorage {\r\n\r\n    string public name;\r\n    uint private id;\r\n    uint private dmg;\r\n\r\n    constructor(uint _id,  string memory _name, uint _dmg) {\r\n        id = _id;\r\n        name = _name;\r\n        dmg = _dmg;\r\n    }\r\n\r\n    function  getId() public view returns (uint) {\r\n       return id;\r\n    }\r\n\r\n    function  getDmg() public view returns (uint) {\r\n       return dmg;\r\n    }\r\n}",
  "sourcePath": "C:\\TruffleWorkSpace\\helloWorld\\contracts\\ItemStorage.sol",
  "compiler": {
    "name": "solc",
    "version": "0.8.11+commit.d7f03943.Emscripten.clang"
  },
  "schemaVersion": "3.4.5",
  "updatedAt": "2022-04-07T17:38:33.410Z",
  "networkType": "ethereum",
  "devdoc": {
    "kind": "dev",
    "methods": {},
    "version": 1
  },
  "userdoc": {
    "kind": "user",
    "methods": {},
    "version": 1
  }
}