{
  "contractName": "ItemStorage",
  "abi": [
    {
      "inputs": [],
      "stateMutability": "nonpayable",
      "type": "constructor"
    },
    {
      "inputs": [
        {
          "internalType": "uint256",
          "name": "_idType",
          "type": "uint256"
        },
        {
          "internalType": "string",
          "name": "_name",
          "type": "string"
        },
        {
          "internalType": "string",
          "name": "_description",
          "type": "string"
        },
        {
          "internalType": "uint256",
          "name": "_damage",
          "type": "uint256"
        },
        {
          "internalType": "string",
          "name": "_cid",
          "type": "string"
        }
      ],
      "name": "createItem",
      "outputs": [
        {
          "components": [
            {
              "internalType": "uint256",
              "name": "idType",
              "type": "uint256"
            },
            {
              "internalType": "string",
              "name": "name",
              "type": "string"
            },
            {
              "internalType": "string",
              "name": "description",
              "type": "string"
            },
            {
              "internalType": "uint256",
              "name": "damage",
              "type": "uint256"
            },
            {
              "internalType": "string",
              "name": "cid",
              "type": "string"
            }
          ],
          "internalType": "struct ItemStorage.Item",
          "name": "",
          "type": "tuple"
        }
      ],
      "stateMutability": "nonpayable",
      "type": "function"
    },
    {
      "inputs": [
        {
          "internalType": "address",
          "name": "_newOwner",
          "type": "address"
        },
        {
          "internalType": "uint256",
          "name": "_idType",
          "type": "uint256"
        },
        {
          "internalType": "uint256",
          "name": "_amount",
          "type": "uint256"
        },
        {
          "internalType": "uint256",
          "name": "_gold",
          "type": "uint256"
        }
      ],
      "name": "transferItemToAddress",
      "outputs": [],
      "stateMutability": "nonpayable",
      "type": "function"
    },
    {
      "inputs": [
        {
          "internalType": "address",
          "name": "_newOwner",
          "type": "address"
        },
        {
          "internalType": "uint256",
          "name": "_idType",
          "type": "uint256"
        },
        {
          "internalType": "uint256",
          "name": "_items",
          "type": "uint256"
        }
      ],
      "name": "addItemToAddress",
      "outputs": [],
      "stateMutability": "nonpayable",
      "type": "function"
    },
    {
      "inputs": [],
      "name": "getBalances",
      "outputs": [
        {
          "internalType": "uint256[]",
          "name": "",
          "type": "uint256[]"
        }
      ],
      "stateMutability": "view",
      "type": "function"
    },
    {
      "inputs": [
        {
          "internalType": "uint256",
          "name": "_idType",
          "type": "uint256"
        }
      ],
      "name": "getItemStats",
      "outputs": [
        {
          "components": [
            {
              "internalType": "uint256",
              "name": "idType",
              "type": "uint256"
            },
            {
              "internalType": "string",
              "name": "name",
              "type": "string"
            },
            {
              "internalType": "string",
              "name": "description",
              "type": "string"
            },
            {
              "internalType": "uint256",
              "name": "damage",
              "type": "uint256"
            },
            {
              "internalType": "string",
              "name": "cid",
              "type": "string"
            }
          ],
          "internalType": "struct ItemStorage.Item",
          "name": "",
          "type": "tuple"
        }
      ],
      "stateMutability": "view",
      "type": "function"
    },
    {
      "inputs": [],
      "name": "getOffersList",
      "outputs": [
        {
          "components": [
            {
              "internalType": "address",
              "name": "buyer",
              "type": "address"
            },
            {
              "internalType": "address",
              "name": "seller",
              "type": "address"
            },
            {
              "internalType": "uint256",
              "name": "itemId",
              "type": "uint256"
            },
            {
              "internalType": "uint256",
              "name": "amount",
              "type": "uint256"
            },
            {
              "internalType": "uint256",
              "name": "gold",
              "type": "uint256"
            }
          ],
          "internalType": "struct ItemStorage.Offer[]",
          "name": "",
          "type": "tuple[]"
        }
      ],
      "stateMutability": "view",
      "type": "function"
    },
    {
      "inputs": [
        {
          "internalType": "address",
          "name": "_buyer",
          "type": "address"
        },
        {
          "internalType": "address",
          "name": "_seller",
          "type": "address"
        },
        {
          "internalType": "uint256",
          "name": "_itemId",
          "type": "uint256"
        },
        {
          "internalType": "uint256",
          "name": "_amount",
          "type": "uint256"
        },
        {
          "internalType": "uint256",
          "name": "_gold",
          "type": "uint256"
        }
      ],
      "name": "makeOffer",
      "outputs": [],
      "stateMutability": "nonpayable",
      "type": "function"
    },
    {
      "inputs": [
        {
          "internalType": "uint256",
          "name": "index",
          "type": "uint256"
        },
        {
          "internalType": "bool",
          "name": "answer",
          "type": "bool"
        }
      ],
      "name": "answerOfferExternal",
      "outputs": [],
      "stateMutability": "nonpayable",
      "type": "function"
    },
    {
      "inputs": [],
      "name": "getItemsNumber",
      "outputs": [
        {
          "internalType": "uint256",
          "name": "",
          "type": "uint256"
        }
      ],
      "stateMutability": "view",
      "type": "function"
    }
  ],
  "bytecode": "0x6080604052600160035534801561001557600080fd5b50336000806101000a81548173ffffffffffffffffffffffffffffffffffffffff021916908373ffffffffffffffffffffffffffffffffffffffff160217905550611d66806100656000396000f3fe608060405234801561001057600080fd5b50600436106100925760003560e01c806377a057421161006657806377a057421461011f57806389a7ea6c1461013d5780638a3ea0f51461016d578063bae42c4314610189578063ed896d3c146101a557610092565b8062113e08146100975780632e3265dd146100b55780635014682b146100d157806376940b8a146100ef575b600080fd5b61009f6101c1565b6040516100ac9190611420565b60405180910390f35b6100cf60048036038101906100ca91906114e0565b6102b4565b005b6100d961051f565b6040516100e6919061166d565b60405180910390f35b610109600480360381019061010491906117d5565b610685565b60405161011691906119b0565b60405180910390f35b6101276107b4565b60405161013491906119e1565b60405180910390f35b610157600480360381019061015291906119fc565b6107be565b60405161016491906119b0565b60405180910390f35b61018760048036038101906101829190611a29565b6109c5565b005b6101a3600480360381019061019e9190611a7c565b610aaa565b005b6101bf60048036038101906101ba9190611b2f565b610c36565b005b60606000600354905060008167ffffffffffffffff8111156101e6576101e56116aa565b5b6040519080825280602002602001820160405280156102145781602001602082028036833780820191505090505b5090506000600160003373ffffffffffffffffffffffffffffffffffffffff1673ffffffffffffffffffffffffffffffffffffffff168152602001908152602001600020905060005b838110156102aa578160008281526020019081526020016000205483828151811061028b5761028a611b6f565b5b60200260200101818152505080806102a290611bcd565b91505061025d565b5081935050505090565b60008054906101000a900473ffffffffffffffffffffffffffffffffffffffff1673ffffffffffffffffffffffffffffffffffffffff163373ffffffffffffffffffffffffffffffffffffffff161461030c57600080fd5b82600081141561031b57600080fd5b838380600160003373ffffffffffffffffffffffffffffffffffffffff1673ffffffffffffffffffffffffffffffffffffffff168152602001908152602001600020600084815260200190815260200160002054101561037a57600080fd5b83600160008973ffffffffffffffffffffffffffffffffffffffff1673ffffffffffffffffffffffffffffffffffffffff168152602001908152602001600020600080815260200190815260200160002060008282546103da9190611c16565b9250508190555083600160003373ffffffffffffffffffffffffffffffffffffffff1673ffffffffffffffffffffffffffffffffffffffff168152602001908152602001600020600080815260200190815260200160002060008282546104419190611c4a565b9250508190555084600160003373ffffffffffffffffffffffffffffffffffffffff1673ffffffffffffffffffffffffffffffffffffffff168152602001908152602001600020600088815260200190815260200160002060008282546104a89190611c16565b9250508190555084600160008973ffffffffffffffffffffffffffffffffffffffff1673ffffffffffffffffffffffffffffffffffffffff1681526020019081526020016000206000888152602001908152602001600020600082825461050f9190611c4a565b9250508190555050505050505050565b6060600460003373ffffffffffffffffffffffffffffffffffffffff1673ffffffffffffffffffffffffffffffffffffffff168152602001908152602001600020805480602002602001604051908101604052809291908181526020016000905b8282101561067c57838290600052602060002090600502016040518060a00160405290816000820160009054906101000a900473ffffffffffffffffffffffffffffffffffffffff1673ffffffffffffffffffffffffffffffffffffffff1673ffffffffffffffffffffffffffffffffffffffff1681526020016001820160009054906101000a900473ffffffffffffffffffffffffffffffffffffffff1673ffffffffffffffffffffffffffffffffffffffff1673ffffffffffffffffffffffffffffffffffffffff168152602001600282015481526020016003820154815260200160048201548152505081526020019060010190610580565b50505050905090565b61068d611286565b60008054906101000a900473ffffffffffffffffffffffffffffffffffffffff1673ffffffffffffffffffffffffffffffffffffffff163373ffffffffffffffffffffffffffffffffffffffff16146106e557600080fd5b60006040518060a00160405280888152602001878152602001868152602001858152602001848152509050806002600089815260200190815260200160002060008201518160000155602082015181600101908051906020019061074a9291906112b5565b5060408201518160020190805190602001906107679291906112b5565b5060608201518160030155608082015181600401908051906020019061078e9291906112b5565b5090505060016003546107a19190611c4a565b6003819055508091505095945050505050565b6000600354905090565b6107c6611286565b8160035481106107d557600080fd5b600260008481526020019081526020016000206040518060a00160405290816000820154815260200160018201805461080d90611ccf565b80601f016020809104026020016040519081016040528092919081815260200182805461083990611ccf565b80156108865780601f1061085b57610100808354040283529160200191610886565b820191906000526020600020905b81548152906001019060200180831161086957829003601f168201915b5050505050815260200160028201805461089f90611ccf565b80601f01602080910402602001604051908101604052809291908181526020018280546108cb90611ccf565b80156109185780601f106108ed57610100808354040283529160200191610918565b820191906000526020600020905b8154815290600101906020018083116108fb57829003601f168201915b505050505081526020016003820154815260200160048201805461093b90611ccf565b80601f016020809104026020016040519081016040528092919081815260200182805461096790611ccf565b80156109b45780601f10610989576101008083540402835291602001916109b4565b820191906000526020600020905b81548152906001019060200180831161099757829003601f168201915b505050505081525050915050919050565b60008054906101000a900473ffffffffffffffffffffffffffffffffffffffff1673ffffffffffffffffffffffffffffffffffffffff163373ffffffffffffffffffffffffffffffffffffffff1614610a1d57600080fd5b816003548110610a2c57600080fd5b6000600160008673ffffffffffffffffffffffffffffffffffffffff1673ffffffffffffffffffffffffffffffffffffffff16815260200190815260200160002090508281600086815260200190815260200160002054610a8d9190611c4a565b816000868152602001908152602001600020819055505050505050565b826003548110610ab957600080fd5b6000600460008773ffffffffffffffffffffffffffffffffffffffff1673ffffffffffffffffffffffffffffffffffffffff168152602001908152602001600020905060006040518060a001604052808973ffffffffffffffffffffffffffffffffffffffff1681526020018873ffffffffffffffffffffffffffffffffffffffff1681526020018781526020018681526020018581525090508181908060018154018082558091505060019003906000526020600020906005020160009091909190915060008201518160000160006101000a81548173ffffffffffffffffffffffffffffffffffffffff021916908373ffffffffffffffffffffffffffffffffffffffff16021790555060208201518160010160006101000a81548173ffffffffffffffffffffffffffffffffffffffff021916908373ffffffffffffffffffffffffffffffffffffffff16021790555060408201518160020155606082015181600301556080820151816004015550505050505050505050565b6000600460003373ffffffffffffffffffffffffffffffffffffffff1673ffffffffffffffffffffffffffffffffffffffff168152602001908152602001600020805480602002602001604051908101604052809291908181526020016000905b82821015610d9357838290600052602060002090600502016040518060a00160405290816000820160009054906101000a900473ffffffffffffffffffffffffffffffffffffffff1673ffffffffffffffffffffffffffffffffffffffff1673ffffffffffffffffffffffffffffffffffffffff1681526020016001820160009054906101000a900473ffffffffffffffffffffffffffffffffffffffff1673ffffffffffffffffffffffffffffffffffffffff1673ffffffffffffffffffffffffffffffffffffffff168152602001600282015481526020016003820154815260200160048201548152505081526020019060010190610c97565b505050509050610dbe818481518110610daf57610dae611b6f565b5b60200260200101518484610dc3565b505050565b82604001516000811415610dd657600080fd5b8360400151846060015180600160003373ffffffffffffffffffffffffffffffffffffffff1673ffffffffffffffffffffffffffffffffffffffff1681526020019081526020016000206000848152602001908152602001600020541015610e3d57600080fd5b8560000151866080015180600160008473ffffffffffffffffffffffffffffffffffffffff1673ffffffffffffffffffffffffffffffffffffffff1681526020019081526020016000206000808152602001908152602001600020541015610ea457600080fd5b851561102b576000600160008a6020015173ffffffffffffffffffffffffffffffffffffffff1673ffffffffffffffffffffffffffffffffffffffff16815260200190815260200160002090506000600160008b6000015173ffffffffffffffffffffffffffffffffffffffff1673ffffffffffffffffffffffffffffffffffffffff1681526020019081526020016000209050896080015181600080815260200190815260200160002054610f5a9190611c16565b81600080815260200190815260200160002081905550896080015182600080815260200190815260200160002054610f929190611c4a565b8260008081526020019081526020016000208190555089606001518260008c60400151815260200190815260200160002054610fce9190611c16565b8260008c6040015181526020019081526020016000208190555089606001518160008c6040015181526020019081526020016000205461100e9190611c4a565b8160008c6040015181526020019081526020016000208190555050505b611035338861103f565b5050505050505050565b6000600460008473ffffffffffffffffffffffffffffffffffffffff1673ffffffffffffffffffffffffffffffffffffffff168152602001908152602001600020905060008290505b600182805490506110999190611c16565b8110156111f057816001826110ae9190611c4a565b815481106110bf576110be611b6f565b5b90600052602060002090600502018282815481106110e0576110df611b6f565b5b90600052602060002090600502016000820160009054906101000a900473ffffffffffffffffffffffffffffffffffffffff168160000160006101000a81548173ffffffffffffffffffffffffffffffffffffffff021916908373ffffffffffffffffffffffffffffffffffffffff1602179055506001820160009054906101000a900473ffffffffffffffffffffffffffffffffffffffff168160010160006101000a81548173ffffffffffffffffffffffffffffffffffffffff021916908373ffffffffffffffffffffffffffffffffffffffff16021790555060028201548160020155600382015481600301556004820154816004015590505080806111e890611bcd565b915050611088565b508080548061120257611201611d01565b5b6001900381819060005260206000209060050201600080820160006101000a81549073ffffffffffffffffffffffffffffffffffffffff02191690556001820160006101000a81549073ffffffffffffffffffffffffffffffffffffffff021916905560028201600090556003820160009055600482016000905550509055505050565b6040518060a0016040528060008152602001606081526020016060815260200160008152602001606081525090565b8280546112c190611ccf565b90600052602060002090601f0160209004810192826112e3576000855561132a565b82601f106112fc57805160ff191683800117855561132a565b8280016001018555821561132a579182015b8281111561132957825182559160200191906001019061130e565b5b509050611337919061133b565b5090565b5b8082111561135457600081600090555060010161133c565b5090565b600081519050919050565b600082825260208201905092915050565b6000819050602082019050919050565b6000819050919050565b61139781611384565b82525050565b60006113a9838361138e565b60208301905092915050565b6000602082019050919050565b60006113cd82611358565b6113d78185611363565b93506113e283611374565b8060005b838110156114135781516113fa888261139d565b9750611405836113b5565b9250506001810190506113e6565b5085935050505092915050565b6000602082019050818103600083015261143a81846113c2565b905092915050565b6000604051905090565b600080fd5b600080fd5b600073ffffffffffffffffffffffffffffffffffffffff82169050919050565b600061148182611456565b9050919050565b61149181611476565b811461149c57600080fd5b50565b6000813590506114ae81611488565b92915050565b6114bd81611384565b81146114c857600080fd5b50565b6000813590506114da816114b4565b92915050565b600080600080608085870312156114fa576114f961144c565b5b60006115088782880161149f565b9450506020611519878288016114cb565b935050604061152a878288016114cb565b925050606061153b878288016114cb565b91505092959194509250565b600081519050919050565b600082825260208201905092915050565b6000819050602082019050919050565b61157c81611476565b82525050565b60a0820160008201516115986000850182611573565b5060208201516115ab6020850182611573565b5060408201516115be604085018261138e565b5060608201516115d1606085018261138e565b5060808201516115e4608085018261138e565b50505050565b60006115f68383611582565b60a08301905092915050565b6000602082019050919050565b600061161a82611547565b6116248185611552565b935061162f83611563565b8060005b8381101561166057815161164788826115ea565b975061165283611602565b925050600181019050611633565b5085935050505092915050565b60006020820190508181036000830152611687818461160f565b905092915050565b600080fd5b600080fd5b6000601f19601f8301169050919050565b7f4e487b7100000000000000000000000000000000000000000000000000000000600052604160045260246000fd5b6116e282611699565b810181811067ffffffffffffffff82111715611701576117006116aa565b5b80604052505050565b6000611714611442565b905061172082826116d9565b919050565b600067ffffffffffffffff8211156117405761173f6116aa565b5b61174982611699565b9050602081019050919050565b82818337600083830152505050565b600061177861177384611725565b61170a565b90508281526020810184848401111561179457611793611694565b5b61179f848285611756565b509392505050565b600082601f8301126117bc576117bb61168f565b5b81356117cc848260208601611765565b91505092915050565b600080600080600060a086880312156117f1576117f061144c565b5b60006117ff888289016114cb565b955050602086013567ffffffffffffffff8111156118205761181f611451565b5b61182c888289016117a7565b945050604086013567ffffffffffffffff81111561184d5761184c611451565b5b611859888289016117a7565b935050606061186a888289016114cb565b925050608086013567ffffffffffffffff81111561188b5761188a611451565b5b611897888289016117a7565b9150509295509295909350565b600081519050919050565b600082825260208201905092915050565b60005b838110156118de5780820151818401526020810190506118c3565b838111156118ed576000848401525b50505050565b60006118fe826118a4565b61190881856118af565b93506119188185602086016118c0565b61192181611699565b840191505092915050565b600060a083016000830151611944600086018261138e565b506020830151848203602086015261195c82826118f3565b9150506040830151848203604086015261197682826118f3565b915050606083015161198b606086018261138e565b50608083015184820360808601526119a382826118f3565b9150508091505092915050565b600060208201905081810360008301526119ca818461192c565b905092915050565b6119db81611384565b82525050565b60006020820190506119f660008301846119d2565b92915050565b600060208284031215611a1257611a1161144c565b5b6000611a20848285016114cb565b91505092915050565b600080600060608486031215611a4257611a4161144c565b5b6000611a508682870161149f565b9350506020611a61868287016114cb565b9250506040611a72868287016114cb565b9150509250925092565b600080600080600060a08688031215611a9857611a9761144c565b5b6000611aa68882890161149f565b9550506020611ab78882890161149f565b9450506040611ac8888289016114cb565b9350506060611ad9888289016114cb565b9250506080611aea888289016114cb565b9150509295509295909350565b60008115159050919050565b611b0c81611af7565b8114611b1757600080fd5b50565b600081359050611b2981611b03565b92915050565b60008060408385031215611b4657611b4561144c565b5b6000611b54858286016114cb565b9250506020611b6585828601611b1a565b9150509250929050565b7f4e487b7100000000000000000000000000000000000000000000000000000000600052603260045260246000fd5b7f4e487b7100000000000000000000000000000000000000000000000000000000600052601160045260246000fd5b6000611bd882611384565b91507fffffffffffffffffffffffffffffffffffffffffffffffffffffffffffffffff821415611c0b57611c0a611b9e565b5b600182019050919050565b6000611c2182611384565b9150611c2c83611384565b925082821015611c3f57611c3e611b9e565b5b828203905092915050565b6000611c5582611384565b9150611c6083611384565b9250827fffffffffffffffffffffffffffffffffffffffffffffffffffffffffffffffff03821115611c9557611c94611b9e565b5b828201905092915050565b7f4e487b7100000000000000000000000000000000000000000000000000000000600052602260045260246000fd5b60006002820490506001821680611ce757607f821691505b60208210811415611cfb57611cfa611ca0565b5b50919050565b7f4e487b7100000000000000000000000000000000000000000000000000000000600052603160045260246000fdfea264697066735822122000d36f89b5c07254a82758a3580e51c67edc4a6105fa749c6a06cc9f4b79a3b864736f6c634300080b0033",
  "immutableReferences": {},
  "source": "// SPDX-License-Identifier: MIT\r\npragma solidity 0.8.11;\r\n\r\ncontract ItemStorage {\r\n\r\n\r\n   address owner;\r\n\r\n   mapping(address => mapping (uint => uint)) private address2Balances;\r\n\r\n   mapping(uint => Item) itemStats;\r\n   uint itemTypes = 1;\r\n\r\n   struct Item {\r\n      uint idType;\r\n      string name;\r\n      string description;\r\n      uint damage;\r\n      string cid;\r\n   }\r\n\r\n   //Buy from somebody\r\n\r\n   mapping(address => Offer[]) Address2Offers;\r\n\r\n   struct Offer {\r\n      address buyer;\r\n      address seller;\r\n      uint itemId;\r\n      uint amount;\r\n      uint gold;\r\n   }\r\n\r\n   constructor() {\r\n      owner = msg.sender;\r\n   }\r\n\r\n   modifier onlyOwner {\r\n      require(msg.sender == owner);\r\n      _;\r\n   }\r\n\r\n   modifier itemExists(uint _idType) {\r\n      require(_idType<itemTypes);\r\n      _;\r\n   }\r\n\r\n   modifier hasItems(uint _idType, uint _amount) {\r\n      require(address2Balances[msg.sender][_idType] >= _amount);\r\n      _;\r\n   }\r\n\r\n   modifier notGold(uint _idType){\r\n      require(_idType != 0);\r\n      _;\r\n   }\r\n\r\n   modifier hasGold(address _adr, uint _gold){\r\n      require(address2Balances[_adr][0] >= _gold);\r\n      _;\r\n   }\r\n\r\n   function createItem(uint _idType, string memory _name, string memory _description, uint _damage, string memory _cid) \r\n      public \r\n      onlyOwner \r\n      returns (Item memory)  \r\n   {\r\n      Item memory newItem = Item(_idType, _name, _description, _damage, _cid);\r\n      itemStats[_idType] = newItem;\r\n\r\n      itemTypes = itemTypes + 1;\r\n\r\n      return newItem;\r\n\r\n   }\r\n\r\n   function transferItemToAddress(address _newOwner, uint _idType, uint _amount, uint _gold) \r\n   public\r\n   onlyOwner\r\n   notGold(_idType) \r\n   hasItems(_idType, _amount)\r\n\r\n   {\r\n      address2Balances[_newOwner][0] -= _gold;\r\n      address2Balances[msg.sender][0] += _gold;\r\n\r\n      address2Balances[msg.sender][_idType] -= _amount;\r\n      address2Balances[_newOwner][_idType] += _amount;\r\n\r\n   }\r\n\r\n   function addItemToAddress(address _newOwner, uint _idType, uint _items) \r\n   public \r\n   onlyOwner \r\n   itemExists(_idType) \r\n   {\r\n      mapping(uint => uint) storage balances = address2Balances[_newOwner];\r\n      balances[_idType] = balances[_idType] + _items;\r\n   }\r\n\r\n   function getBalances() public view returns (uint[] memory) {\r\n\r\n      uint auxint = itemTypes;\r\n      uint[] memory balances = new uint[](auxint);\r\n      mapping(uint => uint) storage auxMap = address2Balances[msg.sender];\r\n\r\n      for(uint i = 0; i < auxint; i++) {\r\n            balances[i] = auxMap[i];\r\n      }\r\n\r\n\r\n      return balances;\r\n   }\r\n\r\n   function getItemStats(uint _idType) public view itemExists(_idType) returns (Item memory) {\r\n      return itemStats[_idType];\r\n   }\r\n\r\n   function getOffersList() public view returns (Offer[] memory){\r\n      return Address2Offers[msg.sender];\r\n   }\r\n\r\n   function makeOffer(\r\n   address _buyer,\r\n   address _seller,\r\n   uint _itemId,\r\n   uint _amount,\r\n   uint _gold)\r\n   public \r\n   itemExists(_itemId) \r\n   {\r\n      Offer[] storage offers = Address2Offers[_seller];\r\n      Offer memory newOffer = Offer( _buyer, _seller, _itemId, _amount, _gold);\r\n      offers.push(newOffer);\r\n   }  \r\n\r\n\r\n   function answerOfferExternal(uint index, bool answer) external {\r\n      Offer[] memory offers = Address2Offers[msg.sender];\r\n      answerOffer(offers[index], index, answer);\r\n   }\r\n\r\n   function answerOffer(Offer memory offer, uint index, bool answer) \r\n   private \r\n   notGold(offer.itemId)\r\n   hasItems(offer.itemId, offer.amount)\r\n   hasGold(offer.buyer, offer.gold)\r\n   {\r\n      if(answer){\r\n\r\n         mapping(uint => uint) storage sellerBalances = address2Balances[offer.seller];\r\n         mapping(uint => uint) storage buyerBalances = address2Balances[offer.buyer];\r\n\r\n         buyerBalances[0] = buyerBalances[0] - offer.gold;\r\n         sellerBalances[0] = sellerBalances[0] + offer.gold;\r\n\r\n         sellerBalances[offer.itemId] = sellerBalances[offer.itemId] - offer.amount;\r\n         buyerBalances[offer.itemId] = buyerBalances[offer.itemId] + offer.amount;\r\n      }\r\n         \r\n\r\n         popItemFromArray(msg.sender, index);\r\n   }\r\n\r\n   function getItemsNumber() view external returns(uint) {\r\n      return itemTypes;\r\n   }\r\n\r\n   function popItemFromArray(address OfferSeller, uint index) private {\r\n      Offer[] storage offers = Address2Offers[OfferSeller];\r\n      for(uint i = index; i < offers.length-1; i++){\r\n         offers[i] = offers[i+1];      \r\n      }\r\n      offers.pop();\r\n  }\r\n\r\n }  ",
  "sourcePath": "C:\\TruffleWorkSpace\\helloWorld\\contracts\\ItemStorage.sol",
  "compiler": {
    "name": "solc",
    "version": "0.8.11+commit.d7f03943.Emscripten.clang"
  },
  "schemaVersion": "3.4.5",
  "updatedAt": "2022-06-11T18:56:14.695Z",
  "devdoc": {
    "kind": "dev",
    "methods": {},
    "version": 1
  },
  "userdoc": {
    "kind": "user",
    "methods": {},
    "version": 1
  }
}