{
  "contractName": "ItemStorage",
  "abi": [
    {
      "inputs": [],
      "stateMutability": "nonpayable",
      "type": "constructor"
    },
    {
      "inputs": [
        {
          "internalType": "uint256",
          "name": "_idType",
          "type": "uint256"
        },
        {
          "internalType": "string",
          "name": "_name",
          "type": "string"
        },
        {
          "internalType": "string",
          "name": "_description",
          "type": "string"
        },
        {
          "internalType": "uint256",
          "name": "_damage",
          "type": "uint256"
        },
        {
          "internalType": "string",
          "name": "_cid",
          "type": "string"
        }
      ],
      "name": "createItem",
      "outputs": [
        {
          "components": [
            {
              "internalType": "uint256",
              "name": "idType",
              "type": "uint256"
            },
            {
              "internalType": "string",
              "name": "name",
              "type": "string"
            },
            {
              "internalType": "string",
              "name": "description",
              "type": "string"
            },
            {
              "internalType": "uint256",
              "name": "damage",
              "type": "uint256"
            },
            {
              "internalType": "string",
              "name": "cid",
              "type": "string"
            }
          ],
          "internalType": "struct ItemStorage.Item",
          "name": "",
          "type": "tuple"
        }
      ],
      "stateMutability": "nonpayable",
      "type": "function"
    },
    {
      "inputs": [
        {
          "internalType": "address",
          "name": "_newOwner",
          "type": "address"
        },
        {
          "internalType": "uint256",
          "name": "_idType",
          "type": "uint256"
        },
        {
          "internalType": "uint256",
          "name": "_items",
          "type": "uint256"
        }
      ],
      "name": "addItemToAddress",
      "outputs": [],
      "stateMutability": "nonpayable",
      "type": "function"
    },
    {
      "inputs": [],
      "name": "getBalances",
      "outputs": [
        {
          "internalType": "uint256[]",
          "name": "",
          "type": "uint256[]"
        }
      ],
      "stateMutability": "view",
      "type": "function",
      "constant": true
    },
    {
      "inputs": [
        {
          "internalType": "uint256",
          "name": "_idType",
          "type": "uint256"
        }
      ],
      "name": "getItemStats",
      "outputs": [
        {
          "components": [
            {
              "internalType": "uint256",
              "name": "idType",
              "type": "uint256"
            },
            {
              "internalType": "string",
              "name": "name",
              "type": "string"
            },
            {
              "internalType": "string",
              "name": "description",
              "type": "string"
            },
            {
              "internalType": "uint256",
              "name": "damage",
              "type": "uint256"
            },
            {
              "internalType": "string",
              "name": "cid",
              "type": "string"
            }
          ],
          "internalType": "struct ItemStorage.Item",
          "name": "",
          "type": "tuple"
        }
      ],
      "stateMutability": "view",
      "type": "function",
      "constant": true
    }
  ],
  "bytecode": "0x608060405234801561001057600080fd5b50336000806101000a81548173ffffffffffffffffffffffffffffffffffffffff021916908373ffffffffffffffffffffffffffffffffffffffff160217905550610d99806100606000396000f3fe608060405234801561001057600080fd5b506004361061004b5760003560e01c8062113e081461005057806376940b8a1461006e57806389a7ea6c1461009e5780638a3ea0f5146100ce575b600080fd5b6100586100ea565b6040516100659190610782565b60405180910390f35b6100886004803603810190610083919061092a565b6101dd565b6040516100959190610b05565b60405180910390f35b6100b860048036038101906100b39190610b27565b61030c565b6040516100c59190610b05565b60405180910390f35b6100e860048036038101906100e39190610bb2565b610513565b005b60606000600354905060008167ffffffffffffffff81111561010f5761010e6107ff565b5b60405190808252806020026020018201604052801561013d5781602001602082028036833780820191505090505b5090506000600160003373ffffffffffffffffffffffffffffffffffffffff1673ffffffffffffffffffffffffffffffffffffffff168152602001908152602001600020905060005b838110156101d357816000828152602001908152602001600020548382815181106101b4576101b3610c05565b5b60200260200101818152505080806101cb90610c63565b915050610186565b5081935050505090565b6101e56105e8565b60008054906101000a900473ffffffffffffffffffffffffffffffffffffffff1673ffffffffffffffffffffffffffffffffffffffff163373ffffffffffffffffffffffffffffffffffffffff161461023d57600080fd5b60006040518060a0016040528088815260200187815260200186815260200185815260200184815250905080600260008981526020019081526020016000206000820151816000015560208201518160010190805190602001906102a2929190610617565b5060408201518160020190805190602001906102bf929190610617565b506060820151816003015560808201518160040190805190602001906102e6929190610617565b5090505060016003546102f99190610cac565b6003819055508091505095945050505050565b6103146105e8565b81600354811061032357600080fd5b600260008481526020019081526020016000206040518060a00160405290816000820154815260200160018201805461035b90610d31565b80601f016020809104026020016040519081016040528092919081815260200182805461038790610d31565b80156103d45780601f106103a9576101008083540402835291602001916103d4565b820191906000526020600020905b8154815290600101906020018083116103b757829003601f168201915b505050505081526020016002820180546103ed90610d31565b80601f016020809104026020016040519081016040528092919081815260200182805461041990610d31565b80156104665780601f1061043b57610100808354040283529160200191610466565b820191906000526020600020905b81548152906001019060200180831161044957829003601f168201915b505050505081526020016003820154815260200160048201805461048990610d31565b80601f01602080910402602001604051908101604052809291908181526020018280546104b590610d31565b80156105025780601f106104d757610100808354040283529160200191610502565b820191906000526020600020905b8154815290600101906020018083116104e557829003601f168201915b505050505081525050915050919050565b60008054906101000a900473ffffffffffffffffffffffffffffffffffffffff1673ffffffffffffffffffffffffffffffffffffffff163373ffffffffffffffffffffffffffffffffffffffff161461056b57600080fd5b6000600160008573ffffffffffffffffffffffffffffffffffffffff1673ffffffffffffffffffffffffffffffffffffffff168152602001908152602001600020905081816000858152602001908152602001600020546105cc9190610cac565b8160008581526020019081526020016000208190555050505050565b6040518060a0016040528060008152602001606081526020016060815260200160008152602001606081525090565b82805461062390610d31565b90600052602060002090601f016020900481019282610645576000855561068c565b82601f1061065e57805160ff191683800117855561068c565b8280016001018555821561068c579182015b8281111561068b578251825591602001919060010190610670565b5b509050610699919061069d565b5090565b5b808211156106b657600081600090555060010161069e565b5090565b600081519050919050565b600082825260208201905092915050565b6000819050602082019050919050565b6000819050919050565b6106f9816106e6565b82525050565b600061070b83836106f0565b60208301905092915050565b6000602082019050919050565b600061072f826106ba565b61073981856106c5565b9350610744836106d6565b8060005b8381101561077557815161075c88826106ff565b975061076783610717565b925050600181019050610748565b5085935050505092915050565b6000602082019050818103600083015261079c8184610724565b905092915050565b6000604051905090565b600080fd5b600080fd5b6107c1816106e6565b81146107cc57600080fd5b50565b6000813590506107de816107b8565b92915050565b600080fd5b600080fd5b6000601f19601f8301169050919050565b7f4e487b7100000000000000000000000000000000000000000000000000000000600052604160045260246000fd5b610837826107ee565b810181811067ffffffffffffffff82111715610856576108556107ff565b5b80604052505050565b60006108696107a4565b9050610875828261082e565b919050565b600067ffffffffffffffff821115610895576108946107ff565b5b61089e826107ee565b9050602081019050919050565b82818337600083830152505050565b60006108cd6108c88461087a565b61085f565b9050828152602081018484840111156108e9576108e86107e9565b5b6108f48482856108ab565b509392505050565b600082601f830112610911576109106107e4565b5b81356109218482602086016108ba565b91505092915050565b600080600080600060a08688031215610946576109456107ae565b5b6000610954888289016107cf565b955050602086013567ffffffffffffffff811115610975576109746107b3565b5b610981888289016108fc565b945050604086013567ffffffffffffffff8111156109a2576109a16107b3565b5b6109ae888289016108fc565b93505060606109bf888289016107cf565b925050608086013567ffffffffffffffff8111156109e0576109df6107b3565b5b6109ec888289016108fc565b9150509295509295909350565b600081519050919050565b600082825260208201905092915050565b60005b83811015610a33578082015181840152602081019050610a18565b83811115610a42576000848401525b50505050565b6000610a53826109f9565b610a5d8185610a04565b9350610a6d818560208601610a15565b610a76816107ee565b840191505092915050565b600060a083016000830151610a9960008601826106f0565b5060208301518482036020860152610ab18282610a48565b91505060408301518482036040860152610acb8282610a48565b9150506060830151610ae060608601826106f0565b5060808301518482036080860152610af88282610a48565b9150508091505092915050565b60006020820190508181036000830152610b1f8184610a81565b905092915050565b600060208284031215610b3d57610b3c6107ae565b5b6000610b4b848285016107cf565b91505092915050565b600073ffffffffffffffffffffffffffffffffffffffff82169050919050565b6000610b7f82610b54565b9050919050565b610b8f81610b74565b8114610b9a57600080fd5b50565b600081359050610bac81610b86565b92915050565b600080600060608486031215610bcb57610bca6107ae565b5b6000610bd986828701610b9d565b9350506020610bea868287016107cf565b9250506040610bfb868287016107cf565b9150509250925092565b7f4e487b7100000000000000000000000000000000000000000000000000000000600052603260045260246000fd5b7f4e487b7100000000000000000000000000000000000000000000000000000000600052601160045260246000fd5b6000610c6e826106e6565b91507fffffffffffffffffffffffffffffffffffffffffffffffffffffffffffffffff821415610ca157610ca0610c34565b5b600182019050919050565b6000610cb7826106e6565b9150610cc2836106e6565b9250827fffffffffffffffffffffffffffffffffffffffffffffffffffffffffffffffff03821115610cf757610cf6610c34565b5b828201905092915050565b7f4e487b7100000000000000000000000000000000000000000000000000000000600052602260045260246000fd5b60006002820490506001821680610d4957607f821691505b60208210811415610d5d57610d5c610d02565b5b5091905056fea2646970667358221220622a7b065e800028880a5e18f8e118224b8f7092eaa35cc84ab67886efe44cd064736f6c634300080b0033",
  "immutableReferences": {},
  "source": "// SPDX-License-Identifier: MIT\r\npragma solidity 0.8.11;\r\n\r\ncontract ItemStorage {\r\n\r\n\r\n   address owner;\r\n\r\n   mapping(address => mapping (uint => uint)) private address2Balances;\r\n\r\n   mapping(uint => Item) itemStats;\r\n   uint itemTypes;\r\n\r\n   struct Item {\r\n      uint idType;\r\n      string name;\r\n      string description;\r\n      uint damage;\r\n      string cid;\r\n   }\r\n\r\n   constructor() {\r\n      owner = msg.sender;\r\n   }\r\n\r\n   modifier onlyOwner {\r\n      require(msg.sender == owner);\r\n      _;\r\n   }\r\n\r\n   modifier itemExists(uint _idType) {\r\n      require(_idType<itemTypes);\r\n      _;\r\n   }\r\n\r\n   function createItem(uint _idType, string memory _name, string memory _description, uint _damage, string memory _cid) \r\n      public \r\n      onlyOwner \r\n      returns (Item memory)  \r\n   {\r\n      Item memory newItem = Item(_idType, _name, _description, _damage, _cid);\r\n      itemStats[_idType] = newItem;\r\n\r\n      itemTypes = itemTypes + 1;\r\n\r\n      return newItem;\r\n\r\n   }\r\n\r\n   function addItemToAddress(address _newOwner, uint _idType, uint _items) public onlyOwner {\r\n      mapping(uint => uint) storage balances = address2Balances[_newOwner];\r\n      balances[_idType] = balances[_idType] + _items;\r\n   }\r\n\r\n   function getBalances() public view returns (uint[] memory) {\r\n\r\n      uint auxint = itemTypes;\r\n      uint[] memory balances = new uint[](auxint);\r\n      mapping(uint => uint) storage auxMap = address2Balances[msg.sender];\r\n\r\n      for(uint i = 0; i < auxint; i++) {\r\n            balances[i] = auxMap[i];\r\n      }\r\n\r\n\r\n      return balances;\r\n   }\r\n\r\n   function getItemStats(uint _idType) public view itemExists(_idType) returns (Item memory) {\r\n      return itemStats[_idType];\r\n   }\r\n\r\n }  ",
  "sourcePath": "C:\\TruffleWorkSpace\\helloWorld\\contracts\\ItemStorage.sol",
  "compiler": {
    "name": "solc",
    "version": "0.8.11+commit.d7f03943.Emscripten.clang"
  },
  "schemaVersion": "3.4.5",
  "updatedAt": "2022-06-01T23:40:23.853Z",
  "networkType": "ethereum",
  "devdoc": {
    "kind": "dev",
    "methods": {},
    "version": 1
  },
  "userdoc": {
    "kind": "user",
    "methods": {},
    "version": 1
  }
}