{
  "contractName": "ItemStorage",
  "abi": [
    {
      "inputs": [],
      "stateMutability": "nonpayable",
      "type": "constructor"
    },
    {
      "inputs": [
        {
          "internalType": "uint256",
          "name": "_idType",
          "type": "uint256"
        },
        {
          "internalType": "string",
          "name": "_name",
          "type": "string"
        },
        {
          "internalType": "string",
          "name": "_description",
          "type": "string"
        },
        {
          "internalType": "uint256",
          "name": "_damage",
          "type": "uint256"
        },
        {
          "internalType": "string",
          "name": "_cid",
          "type": "string"
        }
      ],
      "name": "createItem",
      "outputs": [
        {
          "components": [
            {
              "internalType": "uint256",
              "name": "idType",
              "type": "uint256"
            },
            {
              "internalType": "string",
              "name": "name",
              "type": "string"
            },
            {
              "internalType": "string",
              "name": "description",
              "type": "string"
            },
            {
              "internalType": "uint256",
              "name": "damage",
              "type": "uint256"
            },
            {
              "internalType": "string",
              "name": "cid",
              "type": "string"
            }
          ],
          "internalType": "struct ItemStorage.Item",
          "name": "",
          "type": "tuple"
        }
      ],
      "stateMutability": "nonpayable",
      "type": "function"
    },
    {
      "inputs": [
        {
          "internalType": "address",
          "name": "_newOwner",
          "type": "address"
        },
        {
          "internalType": "uint256",
          "name": "_idType",
          "type": "uint256"
        },
        {
          "internalType": "uint256",
          "name": "_amount",
          "type": "uint256"
        }
      ],
      "name": "transferItemToAddress",
      "outputs": [],
      "stateMutability": "nonpayable",
      "type": "function"
    },
    {
      "inputs": [
        {
          "internalType": "address",
          "name": "_newOwner",
          "type": "address"
        },
        {
          "internalType": "uint256",
          "name": "_idType",
          "type": "uint256"
        },
        {
          "internalType": "uint256",
          "name": "_items",
          "type": "uint256"
        }
      ],
      "name": "addItemToAddress",
      "outputs": [],
      "stateMutability": "nonpayable",
      "type": "function"
    },
    {
      "inputs": [],
      "name": "getBalances",
      "outputs": [
        {
          "internalType": "uint256[]",
          "name": "",
          "type": "uint256[]"
        }
      ],
      "stateMutability": "view",
      "type": "function"
    },
    {
      "inputs": [
        {
          "internalType": "uint256",
          "name": "_idType",
          "type": "uint256"
        }
      ],
      "name": "getItemStats",
      "outputs": [
        {
          "components": [
            {
              "internalType": "uint256",
              "name": "idType",
              "type": "uint256"
            },
            {
              "internalType": "string",
              "name": "name",
              "type": "string"
            },
            {
              "internalType": "string",
              "name": "description",
              "type": "string"
            },
            {
              "internalType": "uint256",
              "name": "damage",
              "type": "uint256"
            },
            {
              "internalType": "string",
              "name": "cid",
              "type": "string"
            }
          ],
          "internalType": "struct ItemStorage.Item",
          "name": "",
          "type": "tuple"
        }
      ],
      "stateMutability": "view",
      "type": "function"
    }
  ],
  "bytecode": "0x608060405234801561001057600080fd5b50336000806101000a81548173ffffffffffffffffffffffffffffffffffffffff021916908373ffffffffffffffffffffffffffffffffffffffff160217905550610f38806100606000396000f3fe608060405234801561001057600080fd5b50600436106100565760003560e01c8062113e081461005b57806376940b8a1461007957806389a7ea6c146100a95780638a3ea0f5146100d9578063f702e57e146100f5575b600080fd5b610063610111565b60405161007091906108ed565b60405180910390f35b610093600480360381019061008e9190610a95565b610204565b6040516100a09190610c70565b60405180910390f35b6100c360048036038101906100be9190610c92565b610333565b6040516100d09190610c70565b60405180910390f35b6100f360048036038101906100ee9190610d1d565b61053a565b005b61010f600480360381019061010a9190610d1d565b61061f565b005b60606000600354905060008167ffffffffffffffff8111156101365761013561096a565b5b6040519080825280602002602001820160405280156101645781602001602082028036833780820191505090505b5090506000600160003373ffffffffffffffffffffffffffffffffffffffff1673ffffffffffffffffffffffffffffffffffffffff168152602001908152602001600020905060005b838110156101fa57816000828152602001908152602001600020548382815181106101db576101da610d70565b5b60200260200101818152505080806101f290610dce565b9150506101ad565b5081935050505090565b61020c610753565b60008054906101000a900473ffffffffffffffffffffffffffffffffffffffff1673ffffffffffffffffffffffffffffffffffffffff163373ffffffffffffffffffffffffffffffffffffffff161461026457600080fd5b60006040518060a0016040528088815260200187815260200186815260200185815260200184815250905080600260008981526020019081526020016000206000820151816000015560208201518160010190805190602001906102c9929190610782565b5060408201518160020190805190602001906102e6929190610782565b5060608201518160030155608082015181600401908051906020019061030d929190610782565b5090505060016003546103209190610e17565b6003819055508091505095945050505050565b61033b610753565b81600354811061034a57600080fd5b600260008481526020019081526020016000206040518060a00160405290816000820154815260200160018201805461038290610e9c565b80601f01602080910402602001604051908101604052809291908181526020018280546103ae90610e9c565b80156103fb5780601f106103d0576101008083540402835291602001916103fb565b820191906000526020600020905b8154815290600101906020018083116103de57829003601f168201915b5050505050815260200160028201805461041490610e9c565b80601f016020809104026020016040519081016040528092919081815260200182805461044090610e9c565b801561048d5780601f106104625761010080835404028352916020019161048d565b820191906000526020600020905b81548152906001019060200180831161047057829003601f168201915b50505050508152602001600382015481526020016004820180546104b090610e9c565b80601f01602080910402602001604051908101604052809291908181526020018280546104dc90610e9c565b80156105295780601f106104fe57610100808354040283529160200191610529565b820191906000526020600020905b81548152906001019060200180831161050c57829003601f168201915b505050505081525050915050919050565b60008054906101000a900473ffffffffffffffffffffffffffffffffffffffff1673ffffffffffffffffffffffffffffffffffffffff163373ffffffffffffffffffffffffffffffffffffffff161461059257600080fd5b8160035481106105a157600080fd5b6000600160008673ffffffffffffffffffffffffffffffffffffffff1673ffffffffffffffffffffffffffffffffffffffff168152602001908152602001600020905082816000868152602001908152602001600020546106029190610e17565b816000868152602001908152602001600020819055505050505050565b818180600160003373ffffffffffffffffffffffffffffffffffffffff1673ffffffffffffffffffffffffffffffffffffffff168152602001908152602001600020600084815260200190815260200160002054101561067e57600080fd5b82600160003373ffffffffffffffffffffffffffffffffffffffff1673ffffffffffffffffffffffffffffffffffffffff168152602001908152602001600020600086815260200190815260200160002060008282546106de9190610ece565b9250508190555082600160008773ffffffffffffffffffffffffffffffffffffffff1673ffffffffffffffffffffffffffffffffffffffff168152602001908152602001600020600086815260200190815260200160002060008282546107459190610e17565b925050819055505050505050565b6040518060a0016040528060008152602001606081526020016060815260200160008152602001606081525090565b82805461078e90610e9c565b90600052602060002090601f0160209004810192826107b057600085556107f7565b82601f106107c957805160ff19168380011785556107f7565b828001600101855582156107f7579182015b828111156107f65782518255916020019190600101906107db565b5b5090506108049190610808565b5090565b5b80821115610821576000816000905550600101610809565b5090565b600081519050919050565b600082825260208201905092915050565b6000819050602082019050919050565b6000819050919050565b61086481610851565b82525050565b6000610876838361085b565b60208301905092915050565b6000602082019050919050565b600061089a82610825565b6108a48185610830565b93506108af83610841565b8060005b838110156108e05781516108c7888261086a565b97506108d283610882565b9250506001810190506108b3565b5085935050505092915050565b60006020820190508181036000830152610907818461088f565b905092915050565b6000604051905090565b600080fd5b600080fd5b61092c81610851565b811461093757600080fd5b50565b60008135905061094981610923565b92915050565b600080fd5b600080fd5b6000601f19601f8301169050919050565b7f4e487b7100000000000000000000000000000000000000000000000000000000600052604160045260246000fd5b6109a282610959565b810181811067ffffffffffffffff821117156109c1576109c061096a565b5b80604052505050565b60006109d461090f565b90506109e08282610999565b919050565b600067ffffffffffffffff821115610a00576109ff61096a565b5b610a0982610959565b9050602081019050919050565b82818337600083830152505050565b6000610a38610a33846109e5565b6109ca565b905082815260208101848484011115610a5457610a53610954565b5b610a5f848285610a16565b509392505050565b600082601f830112610a7c57610a7b61094f565b5b8135610a8c848260208601610a25565b91505092915050565b600080600080600060a08688031215610ab157610ab0610919565b5b6000610abf8882890161093a565b955050602086013567ffffffffffffffff811115610ae057610adf61091e565b5b610aec88828901610a67565b945050604086013567ffffffffffffffff811115610b0d57610b0c61091e565b5b610b1988828901610a67565b9350506060610b2a8882890161093a565b925050608086013567ffffffffffffffff811115610b4b57610b4a61091e565b5b610b5788828901610a67565b9150509295509295909350565b600081519050919050565b600082825260208201905092915050565b60005b83811015610b9e578082015181840152602081019050610b83565b83811115610bad576000848401525b50505050565b6000610bbe82610b64565b610bc88185610b6f565b9350610bd8818560208601610b80565b610be181610959565b840191505092915050565b600060a083016000830151610c04600086018261085b565b5060208301518482036020860152610c1c8282610bb3565b91505060408301518482036040860152610c368282610bb3565b9150506060830151610c4b606086018261085b565b5060808301518482036080860152610c638282610bb3565b9150508091505092915050565b60006020820190508181036000830152610c8a8184610bec565b905092915050565b600060208284031215610ca857610ca7610919565b5b6000610cb68482850161093a565b91505092915050565b600073ffffffffffffffffffffffffffffffffffffffff82169050919050565b6000610cea82610cbf565b9050919050565b610cfa81610cdf565b8114610d0557600080fd5b50565b600081359050610d1781610cf1565b92915050565b600080600060608486031215610d3657610d35610919565b5b6000610d4486828701610d08565b9350506020610d558682870161093a565b9250506040610d668682870161093a565b9150509250925092565b7f4e487b7100000000000000000000000000000000000000000000000000000000600052603260045260246000fd5b7f4e487b7100000000000000000000000000000000000000000000000000000000600052601160045260246000fd5b6000610dd982610851565b91507fffffffffffffffffffffffffffffffffffffffffffffffffffffffffffffffff821415610e0c57610e0b610d9f565b5b600182019050919050565b6000610e2282610851565b9150610e2d83610851565b9250827fffffffffffffffffffffffffffffffffffffffffffffffffffffffffffffffff03821115610e6257610e61610d9f565b5b828201905092915050565b7f4e487b7100000000000000000000000000000000000000000000000000000000600052602260045260246000fd5b60006002820490506001821680610eb457607f821691505b60208210811415610ec857610ec7610e6d565b5b50919050565b6000610ed982610851565b9150610ee483610851565b925082821015610ef757610ef6610d9f565b5b82820390509291505056fea2646970667358221220033658ce8742809dfeb88e1c1a281bc0716586b40fd2936df5b3e312575ee86364736f6c634300080b0033",
  "immutableReferences": {},
  "source": "// SPDX-License-Identifier: MIT\r\npragma solidity 0.8.11;\r\n\r\ncontract ItemStorage {\r\n\r\n\r\n   address owner;\r\n\r\n   mapping(address => mapping (uint => uint)) private address2Balances;\r\n\r\n   mapping(uint => Item) itemStats;\r\n   uint itemTypes;\r\n\r\n   struct Item {\r\n      uint idType;\r\n      string name;\r\n      string description;\r\n      uint damage;\r\n      string cid;\r\n   }\r\n\r\n   constructor() {\r\n      owner = msg.sender;\r\n   }\r\n\r\n   modifier onlyOwner {\r\n      require(msg.sender == owner);\r\n      _;\r\n   }\r\n\r\n   modifier itemExists(uint _idType) {\r\n      require(_idType<itemTypes);\r\n      _;\r\n   }\r\n\r\n   modifier hasItems(uint _idType, uint _amount) {\r\n      require(address2Balances[msg.sender][_idType] >= _amount);\r\n      _;\r\n   }\r\n\r\n   function createItem(uint _idType, string memory _name, string memory _description, uint _damage, string memory _cid) \r\n      public \r\n      onlyOwner \r\n      returns (Item memory)  \r\n   {\r\n      Item memory newItem = Item(_idType, _name, _description, _damage, _cid);\r\n      itemStats[_idType] = newItem;\r\n\r\n      itemTypes = itemTypes + 1;\r\n\r\n      return newItem;\r\n\r\n   }\r\n\r\n   function transferItemToAddress(address _newOwner, uint _idType, uint _amount) \r\n   public \r\n   hasItems(_idType, _amount) \r\n   {\r\n      address2Balances[msg.sender][_idType] -= _amount;\r\n      address2Balances[_newOwner][_idType] += _amount;\r\n\r\n   }\r\n\r\n   function addItemToAddress(address _newOwner, uint _idType, uint _items) \r\n   public \r\n   onlyOwner \r\n   itemExists(_idType) \r\n   {\r\n      mapping(uint => uint) storage balances = address2Balances[_newOwner];\r\n      balances[_idType] = balances[_idType] + _items;\r\n   }\r\n\r\n   function getBalances() public view returns (uint[] memory) {\r\n\r\n      uint auxint = itemTypes;\r\n      uint[] memory balances = new uint[](auxint);\r\n      mapping(uint => uint) storage auxMap = address2Balances[msg.sender];\r\n\r\n      for(uint i = 0; i < auxint; i++) {\r\n            balances[i] = auxMap[i];\r\n      }\r\n\r\n\r\n      return balances;\r\n   }\r\n\r\n   function getItemStats(uint _idType) public view itemExists(_idType) returns (Item memory) {\r\n      return itemStats[_idType];\r\n   }\r\n\r\n }  ",
  "sourcePath": "C:\\TruffleWorkSpace\\helloWorld\\contracts\\ItemStorage.sol",
  "compiler": {
    "name": "solc",
    "version": "0.8.11+commit.d7f03943.Emscripten.clang"
  },
  "schemaVersion": "3.4.5",
  "updatedAt": "2022-06-02T15:44:25.080Z",
  "devdoc": {
    "kind": "dev",
    "methods": {},
    "version": 1
  },
  "userdoc": {
    "kind": "user",
    "methods": {},
    "version": 1
  }
}