{
  "contractName": "ItemStorageInterface",
  "abi": [
    {
      "inputs": [],
      "name": "name",
      "outputs": [
        {
          "internalType": "string",
          "name": "",
          "type": "string"
        }
      ],
      "stateMutability": "nonpayable",
      "type": "function"
    },
    {
      "inputs": [],
      "name": "getDmg",
      "outputs": [
        {
          "internalType": "uint256",
          "name": "",
          "type": "uint256"
        }
      ],
      "stateMutability": "view",
      "type": "function"
    }
  ],
  "bytecode": "0x608060405234801561001057600080fd5b506101a6806100206000396000f3fe608060405234801561001057600080fd5b50600436106100365760003560e01c806306fdde031461003b578063f5461d4114610059575b600080fd5b610043610077565b604051610050919061011a565b60405180910390f35b61006161007c565b60405161006e9190610155565b60405180910390f35b606090565b600090565b600081519050919050565b600082825260208201905092915050565b60005b838110156100bb5780820151818401526020810190506100a0565b838111156100ca576000848401525b50505050565b6000601f19601f8301169050919050565b60006100ec82610081565b6100f6818561008c565b935061010681856020860161009d565b61010f816100d0565b840191505092915050565b6000602082019050818103600083015261013481846100e1565b905092915050565b6000819050919050565b61014f8161013c565b82525050565b600060208201905061016a6000830184610146565b9291505056fea264697066735822122032ebe848a230c6322bb819067792bc5b04b8fcd12a9570f31abb26e18a5e05c664736f6c634300080b0033",
  "immutableReferences": {},
  "source": "// SPDX-License-Identifier: MIT\r\n// compiler version must be greater than or equal to 0.8.10 and less than 0.9.0\r\npragma solidity ^0.8.7;\r\n\r\ncontract FunctionCaller {\r\n\r\n    function  callName(address a) public returns (string memory) {\r\n        ItemStorageInterface item = ItemStorageInterface(a);\r\n\r\n        item.getDmg();\r\n        return item.name();\r\n    }\r\n}\r\n\r\ncontract ItemStorageInterface{\r\n    function name() public returns (string memory){}\r\n    function getDmg() public view returns (uint){}\r\n}",
  "sourcePath": "C:\\TruffleWorkSpace\\helloWorld\\contracts\\FunctionCaller.sol",
  "compiler": {
    "name": "solc",
    "version": "0.8.11+commit.d7f03943.Emscripten.clang"
  },
  "schemaVersion": "3.4.5",
  "updatedAt": "2022-04-01T14:36:40.757Z",
  "devdoc": {
    "kind": "dev",
    "methods": {},
    "version": 1
  },
  "userdoc": {
    "kind": "user",
    "methods": {},
    "version": 1
  }
}