{
  "contractName": "ItemStorage",
  "abi": [
    {
      "inputs": [],
      "stateMutability": "nonpayable",
      "type": "constructor"
    },
    {
      "inputs": [
        {
          "internalType": "uint256",
          "name": "_idType",
          "type": "uint256"
        },
        {
          "internalType": "string",
          "name": "_name",
          "type": "string"
        },
        {
          "internalType": "string",
          "name": "_description",
          "type": "string"
        },
        {
          "internalType": "uint256",
          "name": "_damage",
          "type": "uint256"
        },
        {
          "internalType": "string",
          "name": "_cid",
          "type": "string"
        }
      ],
      "name": "createItem",
      "outputs": [
        {
          "components": [
            {
              "internalType": "uint256",
              "name": "idType",
              "type": "uint256"
            },
            {
              "internalType": "string",
              "name": "name",
              "type": "string"
            },
            {
              "internalType": "string",
              "name": "description",
              "type": "string"
            },
            {
              "internalType": "uint256",
              "name": "damage",
              "type": "uint256"
            },
            {
              "internalType": "string",
              "name": "cid",
              "type": "string"
            }
          ],
          "internalType": "struct ItemStorage.Item",
          "name": "",
          "type": "tuple"
        }
      ],
      "stateMutability": "nonpayable",
      "type": "function"
    },
    {
      "inputs": [
        {
          "internalType": "address",
          "name": "_newOwner",
          "type": "address"
        },
        {
          "internalType": "uint256",
          "name": "_idType",
          "type": "uint256"
        },
        {
          "internalType": "uint256",
          "name": "_amount",
          "type": "uint256"
        },
        {
          "internalType": "uint256",
          "name": "_gold",
          "type": "uint256"
        }
      ],
      "name": "transferItemToAddress",
      "outputs": [],
      "stateMutability": "nonpayable",
      "type": "function"
    },
    {
      "inputs": [
        {
          "internalType": "address",
          "name": "_newOwner",
          "type": "address"
        },
        {
          "internalType": "uint256",
          "name": "_idType",
          "type": "uint256"
        },
        {
          "internalType": "uint256",
          "name": "_items",
          "type": "uint256"
        }
      ],
      "name": "addItemToAddress",
      "outputs": [],
      "stateMutability": "nonpayable",
      "type": "function"
    },
    {
      "inputs": [],
      "name": "getBalances",
      "outputs": [
        {
          "internalType": "uint256[]",
          "name": "",
          "type": "uint256[]"
        }
      ],
      "stateMutability": "view",
      "type": "function"
    },
    {
      "inputs": [
        {
          "internalType": "uint256",
          "name": "_idType",
          "type": "uint256"
        }
      ],
      "name": "getItemStats",
      "outputs": [
        {
          "components": [
            {
              "internalType": "uint256",
              "name": "idType",
              "type": "uint256"
            },
            {
              "internalType": "string",
              "name": "name",
              "type": "string"
            },
            {
              "internalType": "string",
              "name": "description",
              "type": "string"
            },
            {
              "internalType": "uint256",
              "name": "damage",
              "type": "uint256"
            },
            {
              "internalType": "string",
              "name": "cid",
              "type": "string"
            }
          ],
          "internalType": "struct ItemStorage.Item",
          "name": "",
          "type": "tuple"
        }
      ],
      "stateMutability": "view",
      "type": "function"
    },
    {
      "inputs": [],
      "name": "getOffersList",
      "outputs": [
        {
          "components": [
            {
              "internalType": "address",
              "name": "buyer",
              "type": "address"
            },
            {
              "internalType": "address",
              "name": "seller",
              "type": "address"
            },
            {
              "internalType": "uint256",
              "name": "itemId",
              "type": "uint256"
            },
            {
              "internalType": "uint256",
              "name": "amount",
              "type": "uint256"
            },
            {
              "internalType": "uint256",
              "name": "gold",
              "type": "uint256"
            }
          ],
          "internalType": "struct ItemStorage.Offer[]",
          "name": "",
          "type": "tuple[]"
        }
      ],
      "stateMutability": "view",
      "type": "function"
    },
    {
      "inputs": [
        {
          "internalType": "address",
          "name": "_buyer",
          "type": "address"
        },
        {
          "internalType": "address",
          "name": "_seller",
          "type": "address"
        },
        {
          "internalType": "uint256",
          "name": "_itemId",
          "type": "uint256"
        },
        {
          "internalType": "uint256",
          "name": "_amount",
          "type": "uint256"
        },
        {
          "internalType": "uint256",
          "name": "_gold",
          "type": "uint256"
        }
      ],
      "name": "makeOffer",
      "outputs": [],
      "stateMutability": "nonpayable",
      "type": "function"
    },
    {
      "inputs": [
        {
          "internalType": "uint256",
          "name": "index",
          "type": "uint256"
        },
        {
          "internalType": "bool",
          "name": "answer",
          "type": "bool"
        }
      ],
      "name": "answerOfferExternal",
      "outputs": [],
      "stateMutability": "nonpayable",
      "type": "function"
    }
  ],
  "bytecode": "0x608060405234801561001057600080fd5b50336000806101000a81548173ffffffffffffffffffffffffffffffffffffffff021916908373ffffffffffffffffffffffffffffffffffffffff160217905550611d09806100606000396000f3fe608060405234801561001057600080fd5b50600436106100875760003560e01c806389a7ea6c1161005b57806389a7ea6c146101145780638a3ea0f514610144578063bae42c4314610160578063ed896d3c1461017c57610087565b8062113e081461008c5780632e3265dd146100aa5780635014682b146100c657806376940b8a146100e4575b600080fd5b610094610198565b6040516100a191906113ed565b60405180910390f35b6100c460048036038101906100bf91906114ad565b61028b565b005b6100ce6104f6565b6040516100db919061163a565b60405180910390f35b6100fe60048036038101906100f991906117a2565b61065c565b60405161010b919061197d565b60405180910390f35b61012e6004803603810190610129919061199f565b61078b565b60405161013b919061197d565b60405180910390f35b61015e600480360381019061015991906119cc565b610992565b005b61017a60048036038101906101759190611a1f565b610a77565b005b61019660048036038101906101919190611ad2565b610c03565b005b60606000600354905060008167ffffffffffffffff8111156101bd576101bc611677565b5b6040519080825280602002602001820160405280156101eb5781602001602082028036833780820191505090505b5090506000600160003373ffffffffffffffffffffffffffffffffffffffff1673ffffffffffffffffffffffffffffffffffffffff168152602001908152602001600020905060005b83811015610281578160008281526020019081526020016000205483828151811061026257610261611b12565b5b602002602001018181525050808061027990611b70565b915050610234565b5081935050505090565b60008054906101000a900473ffffffffffffffffffffffffffffffffffffffff1673ffffffffffffffffffffffffffffffffffffffff163373ffffffffffffffffffffffffffffffffffffffff16146102e357600080fd5b8260008114156102f257600080fd5b838380600160003373ffffffffffffffffffffffffffffffffffffffff1673ffffffffffffffffffffffffffffffffffffffff168152602001908152602001600020600084815260200190815260200160002054101561035157600080fd5b83600160008973ffffffffffffffffffffffffffffffffffffffff1673ffffffffffffffffffffffffffffffffffffffff168152602001908152602001600020600080815260200190815260200160002060008282546103b19190611bb9565b9250508190555083600160003373ffffffffffffffffffffffffffffffffffffffff1673ffffffffffffffffffffffffffffffffffffffff168152602001908152602001600020600080815260200190815260200160002060008282546104189190611bed565b9250508190555084600160003373ffffffffffffffffffffffffffffffffffffffff1673ffffffffffffffffffffffffffffffffffffffff1681526020019081526020016000206000888152602001908152602001600020600082825461047f9190611bb9565b9250508190555084600160008973ffffffffffffffffffffffffffffffffffffffff1673ffffffffffffffffffffffffffffffffffffffff168152602001908152602001600020600088815260200190815260200160002060008282546104e69190611bed565b9250508190555050505050505050565b6060600460003373ffffffffffffffffffffffffffffffffffffffff1673ffffffffffffffffffffffffffffffffffffffff168152602001908152602001600020805480602002602001604051908101604052809291908181526020016000905b8282101561065357838290600052602060002090600502016040518060a00160405290816000820160009054906101000a900473ffffffffffffffffffffffffffffffffffffffff1673ffffffffffffffffffffffffffffffffffffffff1673ffffffffffffffffffffffffffffffffffffffff1681526020016001820160009054906101000a900473ffffffffffffffffffffffffffffffffffffffff1673ffffffffffffffffffffffffffffffffffffffff1673ffffffffffffffffffffffffffffffffffffffff168152602001600282015481526020016003820154815260200160048201548152505081526020019060010190610557565b50505050905090565b610664611253565b60008054906101000a900473ffffffffffffffffffffffffffffffffffffffff1673ffffffffffffffffffffffffffffffffffffffff163373ffffffffffffffffffffffffffffffffffffffff16146106bc57600080fd5b60006040518060a001604052808881526020018781526020018681526020018581526020018481525090508060026000898152602001908152602001600020600082015181600001556020820151816001019080519060200190610721929190611282565b50604082015181600201908051906020019061073e929190611282565b50606082015181600301556080820151816004019080519060200190610765929190611282565b5090505060016003546107789190611bed565b6003819055508091505095945050505050565b610793611253565b8160035481106107a257600080fd5b600260008481526020019081526020016000206040518060a0016040529081600082015481526020016001820180546107da90611c72565b80601f016020809104026020016040519081016040528092919081815260200182805461080690611c72565b80156108535780601f1061082857610100808354040283529160200191610853565b820191906000526020600020905b81548152906001019060200180831161083657829003601f168201915b5050505050815260200160028201805461086c90611c72565b80601f016020809104026020016040519081016040528092919081815260200182805461089890611c72565b80156108e55780601f106108ba576101008083540402835291602001916108e5565b820191906000526020600020905b8154815290600101906020018083116108c857829003601f168201915b505050505081526020016003820154815260200160048201805461090890611c72565b80601f016020809104026020016040519081016040528092919081815260200182805461093490611c72565b80156109815780601f1061095657610100808354040283529160200191610981565b820191906000526020600020905b81548152906001019060200180831161096457829003601f168201915b505050505081525050915050919050565b60008054906101000a900473ffffffffffffffffffffffffffffffffffffffff1673ffffffffffffffffffffffffffffffffffffffff163373ffffffffffffffffffffffffffffffffffffffff16146109ea57600080fd5b8160035481106109f957600080fd5b6000600160008673ffffffffffffffffffffffffffffffffffffffff1673ffffffffffffffffffffffffffffffffffffffff16815260200190815260200160002090508281600086815260200190815260200160002054610a5a9190611bed565b816000868152602001908152602001600020819055505050505050565b826003548110610a8657600080fd5b6000600460008773ffffffffffffffffffffffffffffffffffffffff1673ffffffffffffffffffffffffffffffffffffffff168152602001908152602001600020905060006040518060a001604052808973ffffffffffffffffffffffffffffffffffffffff1681526020018873ffffffffffffffffffffffffffffffffffffffff1681526020018781526020018681526020018581525090508181908060018154018082558091505060019003906000526020600020906005020160009091909190915060008201518160000160006101000a81548173ffffffffffffffffffffffffffffffffffffffff021916908373ffffffffffffffffffffffffffffffffffffffff16021790555060208201518160010160006101000a81548173ffffffffffffffffffffffffffffffffffffffff021916908373ffffffffffffffffffffffffffffffffffffffff16021790555060408201518160020155606082015181600301556080820151816004015550505050505050505050565b6000600460003373ffffffffffffffffffffffffffffffffffffffff1673ffffffffffffffffffffffffffffffffffffffff168152602001908152602001600020805480602002602001604051908101604052809291908181526020016000905b82821015610d6057838290600052602060002090600502016040518060a00160405290816000820160009054906101000a900473ffffffffffffffffffffffffffffffffffffffff1673ffffffffffffffffffffffffffffffffffffffff1673ffffffffffffffffffffffffffffffffffffffff1681526020016001820160009054906101000a900473ffffffffffffffffffffffffffffffffffffffff1673ffffffffffffffffffffffffffffffffffffffff1673ffffffffffffffffffffffffffffffffffffffff168152602001600282015481526020016003820154815260200160048201548152505081526020019060010190610c64565b505050509050610d8b818481518110610d7c57610d7b611b12565b5b60200260200101518484610d90565b505050565b82604001516000811415610da357600080fd5b8360400151846060015180600160003373ffffffffffffffffffffffffffffffffffffffff1673ffffffffffffffffffffffffffffffffffffffff1681526020019081526020016000206000848152602001908152602001600020541015610e0a57600080fd5b8560000151866080015180600160008473ffffffffffffffffffffffffffffffffffffffff1673ffffffffffffffffffffffffffffffffffffffff1681526020019081526020016000206000808152602001908152602001600020541015610e7157600080fd5b8515610ff8576000600160008a6020015173ffffffffffffffffffffffffffffffffffffffff1673ffffffffffffffffffffffffffffffffffffffff16815260200190815260200160002090506000600160008b6000015173ffffffffffffffffffffffffffffffffffffffff1673ffffffffffffffffffffffffffffffffffffffff1681526020019081526020016000209050896080015181600080815260200190815260200160002054610f279190611bb9565b81600080815260200190815260200160002081905550896080015182600080815260200190815260200160002054610f5f9190611bed565b8260008081526020019081526020016000208190555089606001518260008c60400151815260200190815260200160002054610f9b9190611bb9565b8260008c6040015181526020019081526020016000208190555089606001518160008c60400151815260200190815260200160002054610fdb9190611bed565b8160008c6040015181526020019081526020016000208190555050505b611002338861100c565b5050505050505050565b6000600460008473ffffffffffffffffffffffffffffffffffffffff1673ffffffffffffffffffffffffffffffffffffffff168152602001908152602001600020905060008290505b600182805490506110669190611bb9565b8110156111bd578160018261107b9190611bed565b8154811061108c5761108b611b12565b5b90600052602060002090600502018282815481106110ad576110ac611b12565b5b90600052602060002090600502016000820160009054906101000a900473ffffffffffffffffffffffffffffffffffffffff168160000160006101000a81548173ffffffffffffffffffffffffffffffffffffffff021916908373ffffffffffffffffffffffffffffffffffffffff1602179055506001820160009054906101000a900473ffffffffffffffffffffffffffffffffffffffff168160010160006101000a81548173ffffffffffffffffffffffffffffffffffffffff021916908373ffffffffffffffffffffffffffffffffffffffff16021790555060028201548160020155600382015481600301556004820154816004015590505080806111b590611b70565b915050611055565b50808054806111cf576111ce611ca4565b5b6001900381819060005260206000209060050201600080820160006101000a81549073ffffffffffffffffffffffffffffffffffffffff02191690556001820160006101000a81549073ffffffffffffffffffffffffffffffffffffffff021916905560028201600090556003820160009055600482016000905550509055505050565b6040518060a0016040528060008152602001606081526020016060815260200160008152602001606081525090565b82805461128e90611c72565b90600052602060002090601f0160209004810192826112b057600085556112f7565b82601f106112c957805160ff19168380011785556112f7565b828001600101855582156112f7579182015b828111156112f65782518255916020019190600101906112db565b5b5090506113049190611308565b5090565b5b80821115611321576000816000905550600101611309565b5090565b600081519050919050565b600082825260208201905092915050565b6000819050602082019050919050565b6000819050919050565b61136481611351565b82525050565b6000611376838361135b565b60208301905092915050565b6000602082019050919050565b600061139a82611325565b6113a48185611330565b93506113af83611341565b8060005b838110156113e05781516113c7888261136a565b97506113d283611382565b9250506001810190506113b3565b5085935050505092915050565b60006020820190508181036000830152611407818461138f565b905092915050565b6000604051905090565b600080fd5b600080fd5b600073ffffffffffffffffffffffffffffffffffffffff82169050919050565b600061144e82611423565b9050919050565b61145e81611443565b811461146957600080fd5b50565b60008135905061147b81611455565b92915050565b61148a81611351565b811461149557600080fd5b50565b6000813590506114a781611481565b92915050565b600080600080608085870312156114c7576114c6611419565b5b60006114d58782880161146c565b94505060206114e687828801611498565b93505060406114f787828801611498565b925050606061150887828801611498565b91505092959194509250565b600081519050919050565b600082825260208201905092915050565b6000819050602082019050919050565b61154981611443565b82525050565b60a0820160008201516115656000850182611540565b5060208201516115786020850182611540565b50604082015161158b604085018261135b565b50606082015161159e606085018261135b565b5060808201516115b1608085018261135b565b50505050565b60006115c3838361154f565b60a08301905092915050565b6000602082019050919050565b60006115e782611514565b6115f1818561151f565b93506115fc83611530565b8060005b8381101561162d57815161161488826115b7565b975061161f836115cf565b925050600181019050611600565b5085935050505092915050565b6000602082019050818103600083015261165481846115dc565b905092915050565b600080fd5b600080fd5b6000601f19601f8301169050919050565b7f4e487b7100000000000000000000000000000000000000000000000000000000600052604160045260246000fd5b6116af82611666565b810181811067ffffffffffffffff821117156116ce576116cd611677565b5b80604052505050565b60006116e161140f565b90506116ed82826116a6565b919050565b600067ffffffffffffffff82111561170d5761170c611677565b5b61171682611666565b9050602081019050919050565b82818337600083830152505050565b6000611745611740846116f2565b6116d7565b90508281526020810184848401111561176157611760611661565b5b61176c848285611723565b509392505050565b600082601f8301126117895761178861165c565b5b8135611799848260208601611732565b91505092915050565b600080600080600060a086880312156117be576117bd611419565b5b60006117cc88828901611498565b955050602086013567ffffffffffffffff8111156117ed576117ec61141e565b5b6117f988828901611774565b945050604086013567ffffffffffffffff81111561181a5761181961141e565b5b61182688828901611774565b935050606061183788828901611498565b925050608086013567ffffffffffffffff8111156118585761185761141e565b5b61186488828901611774565b9150509295509295909350565b600081519050919050565b600082825260208201905092915050565b60005b838110156118ab578082015181840152602081019050611890565b838111156118ba576000848401525b50505050565b60006118cb82611871565b6118d5818561187c565b93506118e581856020860161188d565b6118ee81611666565b840191505092915050565b600060a083016000830151611911600086018261135b565b506020830151848203602086015261192982826118c0565b9150506040830151848203604086015261194382826118c0565b9150506060830151611958606086018261135b565b506080830151848203608086015261197082826118c0565b9150508091505092915050565b6000602082019050818103600083015261199781846118f9565b905092915050565b6000602082840312156119b5576119b4611419565b5b60006119c384828501611498565b91505092915050565b6000806000606084860312156119e5576119e4611419565b5b60006119f38682870161146c565b9350506020611a0486828701611498565b9250506040611a1586828701611498565b9150509250925092565b600080600080600060a08688031215611a3b57611a3a611419565b5b6000611a498882890161146c565b9550506020611a5a8882890161146c565b9450506040611a6b88828901611498565b9350506060611a7c88828901611498565b9250506080611a8d88828901611498565b9150509295509295909350565b60008115159050919050565b611aaf81611a9a565b8114611aba57600080fd5b50565b600081359050611acc81611aa6565b92915050565b60008060408385031215611ae957611ae8611419565b5b6000611af785828601611498565b9250506020611b0885828601611abd565b9150509250929050565b7f4e487b7100000000000000000000000000000000000000000000000000000000600052603260045260246000fd5b7f4e487b7100000000000000000000000000000000000000000000000000000000600052601160045260246000fd5b6000611b7b82611351565b91507fffffffffffffffffffffffffffffffffffffffffffffffffffffffffffffffff821415611bae57611bad611b41565b5b600182019050919050565b6000611bc482611351565b9150611bcf83611351565b925082821015611be257611be1611b41565b5b828203905092915050565b6000611bf882611351565b9150611c0383611351565b9250827fffffffffffffffffffffffffffffffffffffffffffffffffffffffffffffffff03821115611c3857611c37611b41565b5b828201905092915050565b7f4e487b7100000000000000000000000000000000000000000000000000000000600052602260045260246000fd5b60006002820490506001821680611c8a57607f821691505b60208210811415611c9e57611c9d611c43565b5b50919050565b7f4e487b7100000000000000000000000000000000000000000000000000000000600052603160045260246000fdfea264697066735822122058bbf4e85223f8ac486cdbbce10eb3b37d481a2e48e850f902f16173aabbe0d664736f6c634300080b0033",
  "immutableReferences": {},
  "source": "// SPDX-License-Identifier: MIT\r\npragma solidity 0.8.11;\r\n\r\ncontract ItemStorage {\r\n\r\n\r\n   address owner;\r\n\r\n   mapping(address => mapping (uint => uint)) private address2Balances;\r\n\r\n   mapping(uint => Item) itemStats;\r\n   uint itemTypes;\r\n\r\n   struct Item {\r\n      uint idType;\r\n      string name;\r\n      string description;\r\n      uint damage;\r\n      string cid;\r\n   }\r\n\r\n   //Buy from somebody\r\n\r\n   mapping(address => Offer[]) Address2Offers;\r\n\r\n   struct Offer {\r\n      address buyer;\r\n      address seller;\r\n      uint itemId;\r\n      uint amount;\r\n      uint gold;\r\n   }\r\n\r\n   constructor() {\r\n      owner = msg.sender;\r\n   }\r\n\r\n   modifier onlyOwner {\r\n      require(msg.sender == owner);\r\n      _;\r\n   }\r\n\r\n   modifier itemExists(uint _idType) {\r\n      require(_idType<itemTypes);\r\n      _;\r\n   }\r\n\r\n   modifier hasItems(uint _idType, uint _amount) {\r\n      require(address2Balances[msg.sender][_idType] >= _amount);\r\n      _;\r\n   }\r\n\r\n   modifier notGold(uint _idType){\r\n      require(_idType != 0);\r\n      _;\r\n   }\r\n\r\n   modifier hasGold(address _adr, uint _gold){\r\n      require(address2Balances[_adr][0] >= _gold);\r\n      _;\r\n   }\r\n\r\n   function createItem(uint _idType, string memory _name, string memory _description, uint _damage, string memory _cid) \r\n      public \r\n      onlyOwner \r\n      returns (Item memory)  \r\n   {\r\n      Item memory newItem = Item(_idType, _name, _description, _damage, _cid);\r\n      itemStats[_idType] = newItem;\r\n\r\n      itemTypes = itemTypes + 1;\r\n\r\n      return newItem;\r\n\r\n   }\r\n\r\n   function transferItemToAddress(address _newOwner, uint _idType, uint _amount, uint _gold) \r\n   public\r\n   onlyOwner\r\n   notGold(_idType) \r\n   hasItems(_idType, _amount)\r\n\r\n   {\r\n      address2Balances[_newOwner][0] -= _gold;\r\n      address2Balances[msg.sender][0] += _gold;\r\n\r\n      address2Balances[msg.sender][_idType] -= _amount;\r\n      address2Balances[_newOwner][_idType] += _amount;\r\n\r\n   }\r\n\r\n   function addItemToAddress(address _newOwner, uint _idType, uint _items) \r\n   public \r\n   onlyOwner \r\n   itemExists(_idType) \r\n   {\r\n      mapping(uint => uint) storage balances = address2Balances[_newOwner];\r\n      balances[_idType] = balances[_idType] + _items;\r\n   }\r\n\r\n   function getBalances() public view returns (uint[] memory) {\r\n\r\n      uint auxint = itemTypes;\r\n      uint[] memory balances = new uint[](auxint);\r\n      mapping(uint => uint) storage auxMap = address2Balances[msg.sender];\r\n\r\n      for(uint i = 0; i < auxint; i++) {\r\n            balances[i] = auxMap[i];\r\n      }\r\n\r\n\r\n      return balances;\r\n   }\r\n\r\n   function getItemStats(uint _idType) public view itemExists(_idType) returns (Item memory) {\r\n      return itemStats[_idType];\r\n   }\r\n\r\n   function getOffersList() public view returns (Offer[] memory){\r\n      return Address2Offers[msg.sender];\r\n   }\r\n\r\n   function makeOffer(\r\n   address _buyer,\r\n   address _seller,\r\n   uint _itemId,\r\n   uint _amount,\r\n   uint _gold)\r\n   public \r\n   itemExists(_itemId) \r\n   {\r\n      Offer[] storage offers = Address2Offers[_seller];\r\n      Offer memory newOffer = Offer( _buyer, _seller, _itemId, _amount, _gold);\r\n      offers.push(newOffer);\r\n   }  \r\n\r\n\r\n   function answerOfferExternal(uint index, bool answer) external {\r\n      Offer[] memory offers = Address2Offers[msg.sender];\r\n      answerOffer(offers[index], index, answer);\r\n   }\r\n\r\n   function answerOffer(Offer memory offer, uint index, bool answer) \r\n   private \r\n   notGold(offer.itemId)\r\n   hasItems(offer.itemId, offer.amount)\r\n   hasGold(offer.buyer, offer.gold)\r\n   {\r\n      if(answer){\r\n         \r\n         mapping(uint => uint) storage sellerBalances = address2Balances[offer.seller];\r\n         mapping(uint => uint) storage buyerBalances = address2Balances[offer.buyer];\r\n\r\n         buyerBalances[0] = buyerBalances[0] - offer.gold;\r\n         sellerBalances[0] = sellerBalances[0] + offer.gold;\r\n\r\n         sellerBalances[offer.itemId] = sellerBalances[offer.itemId] - offer.amount;\r\n         buyerBalances[offer.itemId] = buyerBalances[offer.itemId] + offer.amount;\r\n      }\r\n         \r\n\r\n         popItemFromArray(msg.sender, index);\r\n   }\r\n\r\n\r\n   function popItemFromArray(address OfferSeller, uint index) private{\r\n      Offer[] storage offers = Address2Offers[OfferSeller];\r\n      for(uint i = index; i < offers.length-1; i++){\r\n         offers[i] = offers[i+1];      \r\n      }\r\n      offers.pop();\r\n  }\r\n\r\n }  ",
  "sourcePath": "C:\\TruffleWorkSpace\\helloWorld\\contracts\\ItemStorage.sol",
  "compiler": {
    "name": "solc",
    "version": "0.8.11+commit.d7f03943.Emscripten.clang"
  },
  "schemaVersion": "3.4.5",
  "updatedAt": "2022-06-09T12:16:56.757Z",
  "devdoc": {
    "kind": "dev",
    "methods": {},
    "version": 1
  },
  "userdoc": {
    "kind": "user",
    "methods": {},
    "version": 1
  }
}