{
  "contractName": "ItemStorage",
  "abi": [
    {
      "inputs": [],
      "stateMutability": "nonpayable",
      "type": "constructor"
    },
    {
      "inputs": [
        {
          "internalType": "uint256",
          "name": "_idType",
          "type": "uint256"
        },
        {
          "internalType": "string",
          "name": "_name",
          "type": "string"
        },
        {
          "internalType": "string",
          "name": "_description",
          "type": "string"
        },
        {
          "internalType": "uint256",
          "name": "_damage",
          "type": "uint256"
        }
      ],
      "name": "createItem",
      "outputs": [
        {
          "components": [
            {
              "internalType": "uint256",
              "name": "idType",
              "type": "uint256"
            },
            {
              "internalType": "string",
              "name": "name",
              "type": "string"
            },
            {
              "internalType": "string",
              "name": "description",
              "type": "string"
            },
            {
              "internalType": "uint256",
              "name": "damage",
              "type": "uint256"
            }
          ],
          "internalType": "struct ItemStorage.Item",
          "name": "",
          "type": "tuple"
        }
      ],
      "stateMutability": "nonpayable",
      "type": "function"
    },
    {
      "inputs": [
        {
          "internalType": "address",
          "name": "_newOwner",
          "type": "address"
        },
        {
          "internalType": "uint256",
          "name": "_idType",
          "type": "uint256"
        },
        {
          "internalType": "uint256",
          "name": "_items",
          "type": "uint256"
        }
      ],
      "name": "addItemToAddress",
      "outputs": [],
      "stateMutability": "nonpayable",
      "type": "function"
    },
    {
      "inputs": [],
      "name": "getBalances",
      "outputs": [
        {
          "internalType": "uint256[]",
          "name": "",
          "type": "uint256[]"
        }
      ],
      "stateMutability": "view",
      "type": "function",
      "constant": true
    },
    {
      "inputs": [
        {
          "internalType": "uint256",
          "name": "_idType",
          "type": "uint256"
        }
      ],
      "name": "getItemStats",
      "outputs": [
        {
          "components": [
            {
              "internalType": "uint256",
              "name": "idType",
              "type": "uint256"
            },
            {
              "internalType": "string",
              "name": "name",
              "type": "string"
            },
            {
              "internalType": "string",
              "name": "description",
              "type": "string"
            },
            {
              "internalType": "uint256",
              "name": "damage",
              "type": "uint256"
            }
          ],
          "internalType": "struct ItemStorage.Item",
          "name": "",
          "type": "tuple"
        }
      ],
      "stateMutability": "view",
      "type": "function",
      "constant": true
    }
  ],
  "bytecode": "0x608060405234801561001057600080fd5b50336000806101000a81548173ffffffffffffffffffffffffffffffffffffffff021916908373ffffffffffffffffffffffffffffffffffffffff160217905550610c92806100606000396000f3fe608060405234801561001057600080fd5b506004361061004b5760003560e01c8062113e08146100505780632061a67b1461006e57806389a7ea6c1461009e5780638a3ea0f5146100ce575b600080fd5b6100586100ea565b60405161006591906106c5565b60405180910390f35b6100886004803603810190610083919061086d565b6101dd565b60405161009591906109fe565b60405180910390f35b6100b860048036038101906100b39190610a20565b6102e8565b6040516100c591906109fe565b60405180910390f35b6100e860048036038101906100e39190610aab565b61045d565b005b60606000600354905060008167ffffffffffffffff81111561010f5761010e610742565b5b60405190808252806020026020018201604052801561013d5781602001602082028036833780820191505090505b5090506000600160003373ffffffffffffffffffffffffffffffffffffffff1673ffffffffffffffffffffffffffffffffffffffff168152602001908152602001600020905060005b838110156101d357816000828152602001908152602001600020548382815181106101b4576101b3610afe565b5b60200260200101818152505080806101cb90610b5c565b915050610186565b5081935050505090565b6101e5610532565b60008054906101000a900473ffffffffffffffffffffffffffffffffffffffff1673ffffffffffffffffffffffffffffffffffffffff163373ffffffffffffffffffffffffffffffffffffffff161461023d57600080fd5b60006040518060800160405280878152602001868152602001858152602001848152509050806002600088815260200190815260200160002060008201518160000155602082015181600101908051906020019061029c92919061055a565b5060408201518160020190805190602001906102b992919061055a565b506060820151816003015590505060016003546102d69190610ba5565b60038190555080915050949350505050565b6102f0610532565b8160035481106102ff57600080fd5b600260008481526020019081526020016000206040518060800160405290816000820154815260200160018201805461033790610c2a565b80601f016020809104026020016040519081016040528092919081815260200182805461036390610c2a565b80156103b05780601f10610385576101008083540402835291602001916103b0565b820191906000526020600020905b81548152906001019060200180831161039357829003601f168201915b505050505081526020016002820180546103c990610c2a565b80601f01602080910402602001604051908101604052809291908181526020018280546103f590610c2a565b80156104425780601f1061041757610100808354040283529160200191610442565b820191906000526020600020905b81548152906001019060200180831161042557829003601f168201915b50505050508152602001600382015481525050915050919050565b60008054906101000a900473ffffffffffffffffffffffffffffffffffffffff1673ffffffffffffffffffffffffffffffffffffffff163373ffffffffffffffffffffffffffffffffffffffff16146104b557600080fd5b6000600160008573ffffffffffffffffffffffffffffffffffffffff1673ffffffffffffffffffffffffffffffffffffffff168152602001908152602001600020905081816000858152602001908152602001600020546105169190610ba5565b8160008581526020019081526020016000208190555050505050565b6040518060800160405280600081526020016060815260200160608152602001600081525090565b82805461056690610c2a565b90600052602060002090601f01602090048101928261058857600085556105cf565b82601f106105a157805160ff19168380011785556105cf565b828001600101855582156105cf579182015b828111156105ce5782518255916020019190600101906105b3565b5b5090506105dc91906105e0565b5090565b5b808211156105f95760008160009055506001016105e1565b5090565b600081519050919050565b600082825260208201905092915050565b6000819050602082019050919050565b6000819050919050565b61063c81610629565b82525050565b600061064e8383610633565b60208301905092915050565b6000602082019050919050565b6000610672826105fd565b61067c8185610608565b935061068783610619565b8060005b838110156106b857815161069f8882610642565b97506106aa8361065a565b92505060018101905061068b565b5085935050505092915050565b600060208201905081810360008301526106df8184610667565b905092915050565b6000604051905090565b600080fd5b600080fd5b61070481610629565b811461070f57600080fd5b50565b600081359050610721816106fb565b92915050565b600080fd5b600080fd5b6000601f19601f8301169050919050565b7f4e487b7100000000000000000000000000000000000000000000000000000000600052604160045260246000fd5b61077a82610731565b810181811067ffffffffffffffff8211171561079957610798610742565b5b80604052505050565b60006107ac6106e7565b90506107b88282610771565b919050565b600067ffffffffffffffff8211156107d8576107d7610742565b5b6107e182610731565b9050602081019050919050565b82818337600083830152505050565b600061081061080b846107bd565b6107a2565b90508281526020810184848401111561082c5761082b61072c565b5b6108378482856107ee565b509392505050565b600082601f83011261085457610853610727565b5b81356108648482602086016107fd565b91505092915050565b60008060008060808587031215610887576108866106f1565b5b600061089587828801610712565b945050602085013567ffffffffffffffff8111156108b6576108b56106f6565b5b6108c28782880161083f565b935050604085013567ffffffffffffffff8111156108e3576108e26106f6565b5b6108ef8782880161083f565b925050606061090087828801610712565b91505092959194509250565b600081519050919050565b600082825260208201905092915050565b60005b8381101561094657808201518184015260208101905061092b565b83811115610955576000848401525b50505050565b60006109668261090c565b6109708185610917565b9350610980818560208601610928565b61098981610731565b840191505092915050565b60006080830160008301516109ac6000860182610633565b50602083015184820360208601526109c4828261095b565b915050604083015184820360408601526109de828261095b565b91505060608301516109f36060860182610633565b508091505092915050565b60006020820190508181036000830152610a188184610994565b905092915050565b600060208284031215610a3657610a356106f1565b5b6000610a4484828501610712565b91505092915050565b600073ffffffffffffffffffffffffffffffffffffffff82169050919050565b6000610a7882610a4d565b9050919050565b610a8881610a6d565b8114610a9357600080fd5b50565b600081359050610aa581610a7f565b92915050565b600080600060608486031215610ac457610ac36106f1565b5b6000610ad286828701610a96565b9350506020610ae386828701610712565b9250506040610af486828701610712565b9150509250925092565b7f4e487b7100000000000000000000000000000000000000000000000000000000600052603260045260246000fd5b7f4e487b7100000000000000000000000000000000000000000000000000000000600052601160045260246000fd5b6000610b6782610629565b91507fffffffffffffffffffffffffffffffffffffffffffffffffffffffffffffffff821415610b9a57610b99610b2d565b5b600182019050919050565b6000610bb082610629565b9150610bbb83610629565b9250827fffffffffffffffffffffffffffffffffffffffffffffffffffffffffffffffff03821115610bf057610bef610b2d565b5b828201905092915050565b7f4e487b7100000000000000000000000000000000000000000000000000000000600052602260045260246000fd5b60006002820490506001821680610c4257607f821691505b60208210811415610c5657610c55610bfb565b5b5091905056fea26469706673582212203aa0b0fa80de71ff6a394a8258ab999e8331c3a8dc80b55e91e0e3a9fc0e1af964736f6c634300080b0033",
  "immutableReferences": {},
  "source": "// SPDX-License-Identifier: MIT\r\npragma solidity 0.8.11;\r\n\r\ncontract ItemStorage {\r\n\r\n\r\n   address owner;\r\n\r\n   mapping(address => mapping (uint => uint)) private address2Balances;\r\n\r\n   mapping(uint => Item) itemStats;\r\n   uint itemTypes;\r\n\r\n   struct Item {\r\n      uint idType;\r\n      string name;\r\n      string description;\r\n      uint damage;\r\n   }\r\n\r\n   constructor() {\r\n      owner = msg.sender;\r\n   }\r\n\r\n   modifier onlyOwner {\r\n      require(msg.sender == owner);\r\n      _;\r\n   }\r\n\r\n   modifier itemExists(uint _idType) {\r\n      require(_idType<itemTypes);\r\n      _;\r\n   }\r\n\r\n   function createItem(uint _idType, string memory _name, string memory _description, uint _damage) \r\n      public \r\n      onlyOwner \r\n      returns (Item memory)  \r\n   {\r\n      Item memory newItem = Item(_idType, _name, _description, _damage);\r\n      itemStats[_idType] = newItem;\r\n\r\n      itemTypes = itemTypes + 1;\r\n\r\n      return newItem;\r\n\r\n   }\r\n\r\n   function addItemToAddress(address _newOwner, uint _idType, uint _items) public onlyOwner {\r\n      mapping(uint => uint) storage balances = address2Balances[_newOwner];\r\n      balances[_idType] = balances[_idType] + _items;\r\n   }\r\n\r\n   function getBalances() public view returns (uint[] memory) {\r\n\r\n      uint auxint = itemTypes;\r\n      uint[] memory balances = new uint[](auxint);\r\n      mapping(uint => uint) storage auxMap = address2Balances[msg.sender];\r\n\r\n      for(uint i = 0; i < auxint; i++) {\r\n            balances[i] = auxMap[i];\r\n      }\r\n\r\n\r\n      return balances;\r\n   }\r\n\r\n   function getItemStats(uint _idType) public view itemExists(_idType) returns (Item memory) {\r\n      return itemStats[_idType];\r\n   }\r\n\r\n }  ",
  "sourcePath": "C:\\TruffleWorkSpace\\helloWorld\\contracts\\ItemStorage.sol",
  "compiler": {
    "name": "solc",
    "version": "0.8.11+commit.d7f03943.Emscripten.clang"
  },
  "schemaVersion": "3.4.5",
  "updatedAt": "2022-05-23T12:51:54.838Z",
  "networkType": "ethereum",
  "devdoc": {
    "kind": "dev",
    "methods": {},
    "version": 1
  },
  "userdoc": {
    "kind": "user",
    "methods": {},
    "version": 1
  }
}